:100000000C942A000C9447000C9447000C94470071
:100010000C9447000C9447000C9447000C94470044
:100020000C9447000C9447000C9447000C94470034
:100030000C9447000C9447000C9447000C94470024
:100040000C9483090C9447000C9447000C944700CF
:100050000C94470011241FBECFE5D8E0DEBFCDBF12
:1000600011E0A0E6B0E0EEEDF2E302C005900D92E3
:10007000A23AB107D9F711E0A2EAB1E001C01D929E
:10008000A43AB107E1F70E9412170C946D190C9471
:100090000000EF92FF920F931F937B018C0120E0F1
:1000A00030E040E05FE40E94790388238CF0C801CF
:1000B000B70120E030E040E05FE40E94C1010E940F
:1000C000D9039B01AC01205030404040504806C04D
:1000D000C801B7010E94D9039B01AC01B901CA0153
:1000E0001F910F91FF90EF900895A0E0B0E0EBE733
:1000F000F0E00C943619DC012B01FA019C9192304E
:1001000008F439C1EB018881823008F433C194309E
:1001100069F4843009F02FC111969C91119789815F
:10012000981709F428C1A7E8B0E025C1843009F484
:1001300021C18230A9F4923009F01DC19A01AD01AC
:1001400088E0EA010990AE01E90109929E0181501F
:10015000C1F7E201898111969C918923818308C1AD
:10016000923009F407C112962D903C901397EB0141
:100170008A819B811496AD90BD90CD90DC901797AD
:10018000EC80FD800E811F819101281B390BB90184
:1001900037FF04C066277727621B730B6032710537
:1001A0000CF061C0121613066CF537014801062EDB
:1001B00004C096948794779467940A94D2F721E0C8
:1001C00030E040E050E004C0220F331F441F551FB1
:1001D0006A95D2F721503040404050402E213F21B7
:1001E00040235123211531054105510521F021E01E
:1001F00030E040E050E079018A01E628F72808293C
:1002000019293CC0232BD1F1260E371E350146019A
:10021000062E04C096948794779467940A94D2F734
:1002200021E030E040E050E004C0220F331F441FC3
:10023000551F6A95D2F721503040404050402A2146
:100240003B214C215D21211531054105510521F04E
:1002500021E030E040E050E059016A01A628B728CB
:10026000C828D9280BC0821593052CF01C01AA249C
:10027000BB24650103C0EE24FF24870111969C91E5
:10028000D20111968C91981709F445C0992339F041
:10029000A80197012A193B094C095D0906C0A6016E
:1002A00095012E193F09400B510B57FD08C01182D3
:1002B0003382228224833583468357831DC081E0A5
:1002C00081833382228288279927DC01821B930B4A
:1002D000A40BB50B84839583A683B7830DC0220F2F
:1002E000331F441F551F24833583468357838281E0
:1002F000938101979383828324813581468157813D
:10030000DA01C9010197A109B1098F5F9F4FAF4F72
:10031000BF4328F30BC0918333822282EA0CFB1C7B
:100320000C1D1D1DE482F5820683178383E0808304
:10033000248135814681578157FF1AC0C901AA27F8
:1003400097FDA095BA2F81709070A070B0705695EF
:10035000479537952795822B932BA42BB52B848318
:100360009583A683B7838281938101969383828349
:10037000DF0101C0D201CD01CDB7DEB7E2E10C94BF
:100380005219A0E2B0E0E7ECF1E00C944219698365
:100390007A838B839C832D833E834F835887E9E048
:1003A000EE2EF12CEC0EFD1ECE010196B7010E943F
:1003B000CA058E010F5E1F4FCE010596B8010E943F
:1003C000CA058A8991E089278A8BC701B801AE01E5
:1003D000475E5F4F0E9475000E94F504A096E6E01C
:1003E0000C945E19A0E2B0E0E8EFF1E00C94421941
:1003F00069837A838B839C832D833E834F835887C5
:10040000F9E0EF2EF12CEC0EFD1ECE010196B701A6
:100410000E94CA058E010F5E1F4FCE010596B801DE
:100420000E94CA05C701B801AE01475E5F4F0E9436
:1004300075000E94F504A096E6E00C945E19A0E217
:10044000B0E0E5E2F2E00C94361969837A838B839D
:100450009C832D833E834F835887CE010196BE0136
:10046000675F7F4F0E94CA05CE010596BE016F5E91
:100470007F4F0E94CA059985923088F08989823021
:10048000C8F0943019F4823051F404C0843029F457
:10049000923081F487E890E0C6C0923049F420E0C1
:1004A0009A858A89981321E02A87CE010996BBC0D4
:1004B000823049F420E09A858A89981321E02A8BBA
:1004C000CE014196B0C02D843E844F8458886D88FB
:1004D0007E888F88988CEE24FF248701AA24BB2471
:1004E000650140E050E060E070E0E0E0F0E0C10174
:1004F00081709070892BE9F0E60CF71C081D191D1E
:100500009A01AB012A0D3B1D4C1D5D1D80E090E062
:10051000A0E0B0E0E614F7040805190520F481E036
:1005200090E0A0E0B0E0BA01A901480F591F6A1F8E
:100530007B1FAA0CBB1CCC1CDD1C97FE08C081E0F5
:1005400090E0A0E0B0E0A82AB92ACA2ADB2A3196B6
:10055000E032F10549F0660C771C881C991C569412
:10056000479437942794C3CFFA85EA892B893C892D
:100570008B859C85280F391F2E5F3F4F17C0CA01FE
:1005800081709070892B61F016950795F794E79428
:1005900080E090E0A0E0B0E8E82AF92A0A2B1B2BC3
:1005A00076956795579547952F5F3F4F77FDE7CF36
:1005B0000CC0440F551F661F771F17FD4160EE0CDE
:1005C000FF1C001F111F21503040403090E05907A0
:1005D00090E0690790E4790760F32B8F3C8FDB0193
:1005E000CA018F779070A070B07080349105A1051A
:1005F000B10561F447FD0AC0E114F10401051105DC
:1006000029F0405C5F4F6F4F7F4F40781A8EFE1786
:1006100011F081E08A8F4D8F5E8F6F8F78A383E01A
:10062000898FCE0149960E94F504A096E2E10C94D0
:100630005219A8E1B0E0EFE1F3E00C9442196983AC
:100640007A838B839C832D833E834F83588789E0F5
:10065000E82EF12CEC0EFD1ECE010196B7010E9492
:10066000CA058E010F5E1F4FCE010596B8010E948C
:10067000CA058985823040F08989823028F0C70117
:10068000B8010E94420601C081E06896E6E00C9441
:100690005E19A8E1B0E0EFE4F3E00C94421969833D
:1006A0007A838B839C832D833E834F83588789E095
:1006B000E82EF12CEC0EFD1ECE010196B7010E9432
:1006C000CA058E010F5E1F4FCE010596B8010E942C
:1006D000CA058985823040F08989823028F0C701B7
:1006E000B8010E94420601C08FEF6896E6E00C94C4
:1006F0005E19A8E1B0E0EFE7F3E00C9442196983DA
:100700007A838B839C832D833E834F83588789E034
:10071000E82EF12CEC0EFD1ECE010196B7010E94D1
:10072000CA058E010F5E1F4FCE010596B8010E94CB
:10073000CA058985823040F08989823028F0C70156
:10074000B8010E94420601C08FEF6896E6E00C9463
:100750005E19A8E1B0E0EFEAF3E00C944219698376
:100760007A838B839C832D833E834F83588789E0D4
:10077000E82EF12CEC0EFD1ECE010196B7010E9471
:10078000CA058E010F5E1F4FCE010596B8010E946B
:10079000CA058985823040F08989823028F0C701F6
:1007A000B8010E94420601C081E06896E6E00C9420
:1007B0005E19ACE0B0E0EFEDF3E00C94461969830C
:1007C0007A838B839C83CE010196BE016B5F7F4F42
:1007D0000E94CA058D81823061F1823050F18430EF
:1007E00021F48E81882351F12EC02F81388537FD69
:1007F00020C06E812F3131051CF06623F9F023C033
:100800008EE190E0821B930B29853A854B855C85B0
:1008100004C056954795379527958A95D2F7662354
:10082000B1F050954095309521953F4F4F4F5F4F18
:100830000EC020E030E040E050E009C02FEF3FEF75
:100840004FEF5FE704C020E030E040E050E8B9013E
:10085000CA012C96E2E00C946219A8E0B0E0E3E350
:10086000F4E00C943E197B018C0161157105810542
:10087000910519F482E0898360C083E089838EE169
:10088000C82ED12CDC82CB82ED82FE820F831887AA
:10089000C801B7010E94A604FC013197F7FF3BC0D5
:1008A000222733272E1B3F0B57016801022E04C05D
:1008B000D694C794B794A7940A94D2F740E050E036
:1008C00060E070E081E090E0A0E0B0E004C0880F5C
:1008D000991FAA1FBB1F2A95D2F70197A109B10939
:1008E0008E219F21A023B1230097A105B10521F0FE
:1008F00041E050E060E070E04A295B296C297D29E5
:100900004D835E836F8378878EE190E08E1B9F0B13
:100910009C838B8312C0309781F00E2E04C0EE0CA6
:10092000FF1C001F111F0A94D2F7ED82FE820F8375
:100930001887CE1ADF0ADC82CB821A82CE0101969A
:100940000E94F5042896EAE00C945A19EF92FF925F
:100950000F931F937B018C0180E0E81680E0F8067E
:1009600081E0080780E0180788F48FEFE816F104AB
:100970000105110531F028F088E090E0A0E0B0E03A
:1009800017C080E090E0A0E0B0E012C080E0E81680
:1009900080E0F80680E0080781E0180728F088E189
:1009A00090E0A0E0B0E004C080E190E0A0E0B0E022
:1009B00020E230E040E050E0281B390B4A0B5B0B93
:1009C00004C016950795F794E7948A95D2F7F70136
:1009D000E157FF4F8081281B310941095109C901A5
:1009E0001F910F91FF90EF900895DF92EF92FF9289
:1009F0000F931F93FC01E480F58006811781D1805D
:100A00008081823048F480E090E0A0E1B0E0E82A04
:100A1000F92A0A2B1B2BA5C0843009F49FC0823011
:100A200021F4EE24FF24870105C0E114F10401053F
:100A3000110519F4E0E0F0E096C0628173819FEF48
:100A4000623879070CF05BC022E83FEF261B370BBA
:100A50002A3131052CF020E030E040E050E02AC09F
:100A6000B801A701022E04C0769567955795479562
:100A70000A94D2F781E090E0A0E0B0E004C0880FD3
:100A8000991FAA1FBB1F2A95D2F70197A109B10987
:100A90008E219F21A023B1230097A105B10521F04C
:100AA00081E090E0A0E0B0E09A01AB01282B392B67
:100AB0004A2B5B2BDA01C9018F779070A070B07060
:100AC00080349105A105B10539F427FF09C0205CE8
:100AD0003F4F4F4F5F4F04C0215C3F4F4F4F5F4F21
:100AE000E0E0F0E02030A0E03A07A0E04A07A0E410
:100AF0005A0710F0E1E0F0E079018A0127C0603880
:100B0000710564F5FB01E158FF4FD801C7018F77EC
:100B10009070A070B07080349105A105B10539F4D2
:100B2000E7FE0DC080E490E0A0E0B0E004C08FE3F9
:100B300090E0A0E0B0E0E80EF91E0A1F1B1F17FFAF
:100B400005C016950795F794E794319687E01695BA
:100B50000795F794E7948A95D1F705C0EE24FF2412
:100B60008701EFEFF0E06E2F679566276795902F6E
:100B70009F77D794DD24D7948E2F8695492F462BC7
:100B8000582F5D29B701CA011F910F91FF90EF9077
:100B9000DF900895FC01DB01408151812281622FA9
:100BA0006F7770E0221F2227221F9381892F880FE1
:100BB000822B282F30E0991F9927991F11969C931B
:100BC000119721153105A9F54115510561057105EB
:100BD00011F482E037C082E89FEF13969C938E93C6
:100BE00012979A01AB0167E0220F331F441F551F74
:100BF0006A95D1F783E08C930DC0220F331F441FF9
:100C0000551F12968D919C911397019713969C9363
:100C10008E931297203080E0380780E0480780E408
:100C2000580758F314962D933D934D935C93179763
:100C300008952F3F310579F441155105610571057E
:100C400019F484E08C93089564FF03C081E08C93D1
:100C500012C01C9210C02F57304013963C932E9315
:100C6000129783E08C9387E0440F551F661F771F10
:100C70008A95D1F7706414964D935D936D937C9330
:100C8000179708951F93DC01FB019C91923008F4A3
:100C900047C08081823008F443C0943051F41196EB
:100CA0001C91843099F58181682F70E0611B710976
:100CB0003FC0843021F0923031F48230B9F181812B
:100CC000882389F12DC011961C9111978230F1F083
:100CD00081811817D9F412962D913C911397828136
:100CE00093818217930794F028173907BCF0149664
:100CF0008D919D910D90BC91A02D248135814681CF
:100D00005781281739074A075B0718F4112341F068
:100D10000AC082179307A407B50740F4112319F0FE
:100D200061E070E005C06FEF7FEF02C060E070E04F
:100D3000CB011F910895539A549A86E880BD83E3AE
:100D400089B908955D9BFECF8CB9089520E040E6F7
:100D50005AEE07C0DA011197F1F75D9BFECFECB9AF
:100D60002F5FFC01E20FF11DE081EE2399F708955A
:100D70005F9BFECF8CB108951F93CF93DF93EC015F
:100D800010E05F9BFECF8CB188830E94D0168881D3
:100D90000E9425151F5F198221961A3091F7DF9165
:100DA000CF911F9108958FB780688FBF08958FB737
:100DB0008F778FBF0895843008F075C0683008F0D1
:100DC00072C04130B1F5813099F0813030F082301D
:100DD000D1F0833009F067C021C02AB381E090E0F0
:100DE00002C0880F991F6A95E2F7282B2ABB089545
:100DF00027B381E090E002C0880F991F6A95E2F75F
:100E0000282B27BB089524B381E090E002C0880F0F
:100E1000991F6A95E2F7282B24BB089521B381E03E
:100E200090E002C0880F991F6A95E2F7282B21BB3A
:100E300008954423C1F5813099F0813028F0823043
:100E4000D9F0833081F524C02AB381E090E002C05C
:100E5000880F991F6A95E2F7809582238ABB0895CF
:100E600027B381E090E002C0880F991F6A95E2F7EE
:100E70008095822387BB089524B381E090E002C06F
:100E8000880F991F6A95E2F78095822384BB0895A5
:100E900021B381E090E002C0880F991F6A95E2F7C4
:100EA0008095822381BB08954130B1F5813099F05E
:100EB000813030F08230D1F0833009F067C021C03A
:100EC0002BB381E090E002C0880F991F6A95E2F78A
:100ED000282B2BBB089528B381E090E002C0880F37
:100EE000991F6A95E2F7282B28BB089525B381E066
:100EF00090E002C0880F991F6A95E2F7282B25BB66
:100F0000089522B381E090E002C0880F991F6A958E
:100F1000E2F7282B22BB08954423C1F5813099F0D4
:100F2000813028F08230D9F0833081F524C02BB392
:100F300081E090E002C0880F991F6A95E2F78095E2
:100F400082238BBB089528B381E090E002C0880F14
:100F5000991F6A95E2F78095822388BB089525B38F
:100F600081E090E002C0880F991F6A95E2F78095B2
:100F7000822385BB089522B381E090E002C0880FF0
:100F8000991F6A95E2F78095822382BB089581308C
:100F900099F0813028F08230D9F0833081F524C077
:100FA0002BB381E090E002C0880F991F6A95E2F7A9
:100FB000809582238BBB089528B381E090E002C026
:100FC000880F991F6A95E2F78095822388BB089560
:100FD00025B381E090E002C0880F991F6A95E2F77F
:100FE0008095822385BB089522B381E090E002C002
:100FF000880F991F6A95E2F78095822382BB089536
:10100000FA01813049F0813028F0823039F08330A4
:1010100051F517C029B303C026B301C023B381E043
:1010200090E0062E02C0880F991F0A94E2F730E084
:101030008223932302C0959587956A95E2F7808372
:10104000089520B381E090E0062E02C0880F991F1A
:101050000A94E2F730E08223932302C095958795A6
:101060006A95E2F780830895813091F0813028F00D
:101070008230C9F0833061F521C02BB381E090E06C
:1010800002C0880F991F6A95E2F728272BBB0895A5
:1010900028B381E090E002C0880F991F6A95E2F7BB
:1010A000282728BB089525B381E090E002C0880F6F
:1010B000991F6A95E2F7282725BB089522B381E09E
:1010C00090E002C0880F991F6A95E2F7282722BB9B
:1010D0000895813049F0813028F0823039F0833032
:1010E00041F406C06ABB089567BB089564BB0895C8
:1010F00061BB0895813049F0813028F0823039F0A9
:10110000833041F406C06BBB089568BB089565BB8E
:10111000089562BB0895813049F0813028F0823013
:1011200039F0833041F406C01BBA089518BA089507
:1011300015BA089512BA0895FB01813049F0813043
:1011400028F0823039F0833051F407C089B303C0EE
:1011500086B301C083B38083089580B380830895EC
:10116000813059F0813028F0823059F0833081F499
:101170000CC08BB380958BBB089588B3809588BBDA
:10118000089585B3809585BB089582B3809582BB11
:101190000895813071F0813028F0823089F08330F9
:1011A000E1F415C08BB38F708BBB8BB3862B8BBBDD
:1011B000089588B38F7088BB88B3862B88BB089549
:1011C00085B38F7085BB85B3862B85BB089582B3AD
:1011D0008F7082BB82B3862B82BB0895813071F001
:1011E000813028F0823089F08330E1F415C08BB370
:1011F000807F8BBB8BB3862B8BBB089588B3807F9E
:1012000088BB88B3862B88BB089585B3807F85BB58
:1012100085B3862B85BB089582B3807F82BB82B362
:10122000862B82BB08953E9A3F983D98309831981E
:1012300032988FB78F7E8FBF80B78F7D80BF379AF0
:1012400008958330B9F0843028F4813071F0823011
:1012500078F409C08530A1F0853080F0863099F0AF
:101260008730C1F412C0389801C0389A399804C048
:10127000389801C0389A399A3A980AC0389801C00B
:10128000389A399804C0389801C0389A399A3A9AED
:101290003B983C98369A0895379A08953798089560
:1012A000339A0895339808950E942109369A349B01
:1012B000FECF24B145B1349A742F60E030E0622B48
:1012C000732B80E090E00E942D0408950E94540941
:1012D00020E030E040EA50E40E941F0220E030E0CD
:1012E00040E85AE30E941F0208950E94660920E028
:1012F00030E048EC52E40E941F0208959093A3014D
:101300008093A201089578941F920F920FB60F92C6
:1013100011242F933F934F935F936F937F938F93FA
:101320009F93AF93BF93EF93FF93E091A201F0914E
:10133000A301309709F00995FF91EF91BF91AF910B
:101340009F918F917F916F915F914F913F912F91DD
:101350000F900FBE0F901F90189582E060E040E064
:101360000E94540782E061E040E00E94540782E05E
:1013700062E040E00E94540782E063E040E00E94A7
:10138000540708952F923F924F925F926F927F92EF
:101390008F929F92AF92BF92CF92DF92EF92FF9285
:1013A0000F931F93DF93CF93CDB7DEB760970FB640
:1013B000F894DEBF0FBECDBF142F813009F0A8C254
:1013C000613009F051C1B90180E090E0982F872F7A
:1013D000762F662724EB30E040E050E00E94F918B9
:1013E00059016A01222433242101812F90E0A0E0D9
:1013F000B0E089839A83AB83BC832FC182E060E035
:1014000041E00E94540782E061E040E00E945407FE
:1014100082E062E040E00E94540782E063E040E046
:101420000E94540769817A818B819C810E942D04DE
:101430003B014C0120E030E04AEF54E40E941F02DF
:101440007B018C0120E030E040E85FE30E94A903CB
:1014500088231CF461E070E023C0C801B70120E0DC
:101460003FEF4FE757E40E9449031816ACF4C4015C
:10147000B30120E030E040E251E40E941F020E94EC
:10148000490006C088EC90E00197F1F76150704088
:1014900061157105B9F707C0C801B7010E9449007D
:1014A000CB010197F1F782E060E040E00E94540731
:1014B00082E061E041E00E94540782E062E040E0A7
:1014C0000E94540782E063E040E00E945407C80194
:1014D000B70120E030E040E85FE30E94A9038823E1
:1014E0001CF461E070E023C0C801B70120E03FEFC9
:1014F0004FE757E40E9449031816ACF4C401B30146
:1015000020E030E040E251E40E941F020E944900C6
:1015100006C088EC90E00197F1F7615070406115CA
:101520007105B9F707C0C801B7010E944900CB0196
:101530000197F1F782E060E040E00E94540782E00A
:1015400061E040E00E94540782E062E041E00E94D6
:10155000540782E063E040E00E945407C801B701ED
:1015600020E030E040E85FE30E94A90388231CF4F8
:1015700061E070E023C0C801B70120E03FEF4FE712
:1015800057E40E9449031816ACF4C401B30120E0EB
:1015900030E040E251E40E941F020E94490006C070
:1015A00088EC90E00197F1F761507040611571058A
:1015B000B9F707C0C801B7010E944900CB010197E4
:1015C000F1F782E060E040E00E94540782E061E0D1
:1015D00040E00E94540782E062E040E00E9454072D
:1015E00082E063E041E00E945407C801B70120E0B7
:1015F00030E040E85FE30E94A90388231CF461E027
:1016000070E023C0C801B70120E03FEF4FE757E487
:101610000E9449031816ACF4C401B30120E030E085
:1016200040E251E40E941F020E94490006C088EC7B
:1016300090E00197F1F76150704061157105B9F7BD
:1016400007C0C801B7010E944900CB010197F1F71B
:101650000894211C311C411C511C2A143B044C04CD
:101660005D0408F4CBCE3CC6662309F039C6B90147
:1016700080E090E0982F872F762F662724EB30E0CC
:1016800040E050E00E94F91859016A0122243324F5
:101690002101812F90E0A0E0B0E08D839E83AF8395
:1016A000B8872FC182E060E040E00E94540782E0EA
:1016B00061E040E00E94540782E062E040E00E9466
:1016C000540782E063E041E00E9454076D817E810F
:1016D0008F8198850E942D043B014C0120E030E071
:1016E0004AEF54E40E941F027B018C0120E030E0AD
:1016F00040E85FE30E94A90388231CF461E070E0E6
:1017000023C0C801B70120E03FEF4FE757E40E9434
:1017100049031816ACF4C401B30120E030E040E204
:1017200051E40E941F020E94490006C088EC90E02C
:101730000197F1F76150704061157105B9F707C065
:10174000C801B7010E944900CB010197F1F782E07F
:1017500060E040E00E94540782E061E040E00E94C7
:10176000540782E062E041E00E94540782E063E0B7
:1017700040E00E945407C801B70120E030E040E893
:101780005FE30E94A90388231CF461E070E023C09A
:10179000C801B70120E03FEF4FE757E40E9449033B
:1017A0001816ACF4C401B30120E030E040E251E48B
:1017B0000E941F020E94490006C088EC90E0019739
:1017C000F1F76150704061157105B9F707C0C801A4
:1017D000B7010E944900CB010197F1F782E060E078
:1017E00040E00E94540782E061E041E00E9454071B
:1017F00082E062E040E00E94540782E063E040E063
:101800000E945407C801B70120E030E040E85FE3E0
:101810000E94A90388231CF461E070E023C0C80182
:10182000B70120E03FEF4FE757E40E944903181645
:10183000ACF4C401B30120E030E040E251E40E9486
:101840001F020E94490006C088EC90E00197F1F762
:101850006150704061157105B9F707C0C801B70143
:101860000E944900CB010197F1F782E060E041E07E
:101870000E94540782E061E040E00E94540782E049
:1018800062E040E00E94540782E063E040E00E9492
:101890005407C801B70120E030E040E85FE30E9450
:1018A000A90388231CF461E070E023C0C801B701DC
:1018B00020E03FEF4FE757E40E9449031816ACF4CD
:1018C000C401B30120E030E040E251E40E941F0275
:1018D0000E94490006C088EC90E00197F1F7615042
:1018E000704061157105B9F707C0C801B7010E94C2
:1018F0004900CB010197F1F70894211C311C411CD0
:10190000511C2A143B044C045D0408F4CBCEE8C4FB
:10191000882309F0E5C4613009F070C2B90180E0A4
:1019200090E039E0660F771F881F991F3A95D1F72D
:1019300028E631E040E050E00E94F91839014A0100
:10194000222433242101812F90E0A0E0B0E0898798
:101950009A87AB87BC874BC282E060E041E00E947F
:10196000540782E061E040E00E94540782E062E0B8
:1019700040E00E94540782E063E040E00E94540788
:1019800069857A858B859C850E942D045B016C019D
:1019900020E030E04AEF54E40E941F027B018C01FA
:1019A00020E030E040E85FE30E94A90388231CF4B4
:1019B00061E070E023C0C801B70120E03FEF4FE7CE
:1019C00057E40E9449031816ACF4C601B50120E0A3
:1019D00030E040E251E40E941F020E94490006C02C
:1019E00088EC90E00197F1F7615070406115710546
:1019F000B9F707C0C801B7010E944900CB010197A0
:101A0000F1F782E060E041E00E94540782E061E08B
:101A100041E00E94540782E062E040E00E945407E7
:101A200082E063E040E00E945407C801B70120E073
:101A300030E040E85FE30E94A90388231CF461E0E2
:101A400070E023C0C801B70120E03FEF4FE757E443
:101A50000E9449031816ACF4C601B50120E030E03D
:101A600040E251E40E941F020E94490006C088EC37
:101A700090E00197F1F76150704061157105B9F779
:101A800007C0C801B7010E944900CB010197F1F7D7
:101A900082E060E040E00E94540782E061E041E0C3
:101AA0000E94540782E062E040E00E94540782E016
:101AB00063E040E00E945407C801B70120E030E035
:101AC00040E85FE30E94A90388231CF461E070E012
:101AD00023C0C801B70120E03FEF4FE757E40E9461
:101AE00049031816ACF4C601B50120E030E040E22D
:101AF00051E40E941F020E94490006C088EC90E059
:101B00000197F1F76150704061157105B9F707C091
:101B1000C801B7010E944900CB010197F1F782E0AB
:101B200060E040E00E94540782E061E041E00E94F2
:101B3000540782E062E041E00E94540782E063E0E3
:101B400040E00E945407C801B70120E030E040E8BF
:101B50005FE30E94A90388231CF461E070E023C0C6
:101B6000C801B70120E03FEF4FE757E40E94490367
:101B70001816ACF4C601B50120E030E040E251E4B3
:101B80000E941F020E94490006C088EC90E0019765
:101B9000F1F76150704061157105B9F707C0C801D0
:101BA000B7010E944900CB010197F1F782E060E0A4
:101BB00040E00E94540782E061E040E00E94540748
:101BC00082E062E041E00E94540782E063E040E08E
:101BD0000E945407C801B70120E030E040E85FE30D
:101BE0000E94A90388231CF461E070E023C0C801AF
:101BF000B70120E03FEF4FE757E40E944903181672
:101C0000ACF4C601B50120E030E040E251E40E94AE
:101C10001F020E94490006C088EC90E00197F1F78E
:101C20006150704061157105B9F707C0C801B7016F
:101C30000E944900CB010197F1F782E060E040E0AB
:101C40000E94540782E061E040E00E94540782E075
:101C500062E041E00E94540782E063E041E00E94BC
:101C60005407C801B70120E030E040E85FE30E947C
:101C7000A90388231CF461E070E023C0C801B70108
:101C800020E03FEF4FE757E40E9449031816ACF4F9
:101C9000C601B50120E030E040E251E40E941F029D
:101CA0000E94490006C088EC90E00197F1F761506E
:101CB000704061157105B9F707C0C801B7010E94EE
:101CC0004900CB010197F1F782E060E040E00E941B
:101CD000540782E061E040E00E94540782E062E045
:101CE00040E00E94540782E063E041E00E94540714
:101CF000C801B70120E030E040E85FE30E94A9039B
:101D000088231CF461E070E023C0C801B70120E023
:101D10003FEF4FE757E40E9449031816ACF4C601A1
:101D2000B50120E030E040E251E40E941F020E9431
:101D3000490006C088EC90E00197F1F761507040CF
:101D400061157105B9F707C0C801B7010E944900C4
:101D5000CB010197F1F782E060E041E00E94540777
:101D600082E061E040E00E94540782E062E040E0EF
:101D70000E94540782E063E041E00E945407C801DA
:101D8000B70120E030E040E85FE30E94A903882328
:101D90001CF461E070E023C0C801B70120E03FEF10
:101DA0004FE757E40E9449031816ACF4C601B50189
:101DB00020E030E040E251E40E941F020E9449000E
:101DC00006C088EC90E00197F1F761507040611512
:101DD0007105B9F707C0C801B7010E944900CB01DE
:101DE0000197F1F70894211C311C411C511C261449
:101DF00037044804590408F4AFCD72C2662309F0D1
:101E00006FC2B90180E090E029E0660F771F881F5C
:101E1000991F2A95D1F728E631E040E050E00E9472
:101E2000F91839014A01222433242101812F90E03D
:101E3000A0E0B0E08D879E87AF87B88B4BC282E071
:101E400060E041E00E94540782E061E040E00E94CF
:101E5000540782E062E040E00E94540782E063E0C1
:101E600041E00E9454076D857E858F8598890E9488
:101E70002D045B016C0120E030E04AEF54E40E9445
:101E80001F027B018C0120E030E040E85FE30E940C
:101E9000A90388231CF461E070E023C0C801B701E6
:101EA00020E03FEF4FE757E40E9449031816ACF4D7
:101EB000C601B50120E030E040E251E40E941F027B
:101EC0000E94490006C088EC90E00197F1F761504C
:101ED000704061157105B9F707C0C801B7010E94CC
:101EE0004900CB010197F1F782E060E040E00E94F9
:101EF000540782E061E040E00E94540782E062E023
:101F000040E00E94540782E063E041E00E945407F1
:101F1000C801B70120E030E040E85FE30E94A90378
:101F200088231CF461E070E023C0C801B70120E001
:101F30003FEF4FE757E40E9449031816ACF4C6017F
:101F4000B50120E030E040E251E40E941F020E940F
:101F5000490006C088EC90E00197F1F761507040AD
:101F600061157105B9F707C0C801B7010E944900A2
:101F7000CB010197F1F782E060E040E00E94540756
:101F800082E061E040E00E94540782E062E041E0CC
:101F90000E94540782E063E041E00E945407C801B8
:101FA000B70120E030E040E85FE30E94A903882306
:101FB0001CF461E070E023C0C801B70120E03FEFEE
:101FC0004FE757E40E9449031816ACF4C601B50167
:101FD00020E030E040E251E40E941F020E944900EC
:101FE00006C088EC90E00197F1F7615070406115F0
:101FF0007105B9F707C0C801B7010E944900CB01BC
:102000000197F1F782E060E040E00E94540782E02F
:1020100061E040E00E94540782E062E041E00E94FB
:10202000540782E063E040E00E945407C801B70112
:1020300020E030E040E85FE30E94A90388231CF41D
:1020400061E070E023C0C801B70120E03FEF4FE737
:1020500057E40E9449031816ACF4C601B50120E00C
:1020600030E040E251E40E941F020E94490006C095
:1020700088EC90E00197F1F76150704061157105AF
:10208000B9F707C0C801B7010E944900CB01019709
:10209000F1F782E060E040E00E94540782E061E0F6
:1020A00041E00E94540782E062E041E00E94540750
:1020B00082E063E040E00E945407C801B70120E0DD
:1020C00030E040E85FE30E94A90388231CF461E04C
:1020D00070E023C0C801B70120E03FEF4FE757E4AD
:1020E0000E9449031816ACF4C601B50120E030E0A7
:1020F00040E251E40E941F020E94490006C088ECA1
:1021000090E00197F1F76150704061157105B9F7E2
:1021100007C0C801B7010E944900CB010197F1F740
:1021200082E060E040E00E94540782E061E041E02C
:102130000E94540782E062E040E00E94540782E07F
:1021400063E040E00E945407C801B70120E030E09E
:1021500040E85FE30E94A90388231CF461E070E07B
:1021600023C0C801B70120E03FEF4FE757E40E94CA
:1021700049031816ACF4C601B50120E030E040E296
:1021800051E40E941F020E94490006C088EC90E0C2
:102190000197F1F76150704061157105B9F707C0FB
:1021A000C801B7010E944900CB010197F1F782E015
:1021B00060E041E00E94540782E061E041E00E945B
:1021C000540782E062E040E00E94540782E063E04E
:1021D00040E00E945407C801B70120E030E040E829
:1021E0005FE30E94A90388231CF461E070E023C030
:1021F000C801B70120E03FEF4FE757E40E944903D1
:102200001816ACF4C601B50120E030E040E251E41C
:102210000E941F020E94490006C088EC90E00197CE
:10222000F1F76150704061157105B9F707C0C80139
:10223000B7010E944900CB010197F1F782E060E00D
:1022400041E00E94540782E061E040E00E945407B0
:1022500082E062E040E00E94540782E063E040E0F8
:102260000E945407C801B70120E030E040E85FE376
:102270000E94A90388231CF461E070E023C0C80118
:10228000B70120E03FEF4FE757E40E9449031816DB
:10229000ACF4C601B50120E030E040E251E40E9418
:1022A0001F020E94490006C088EC90E00197F1F7F8
:1022B0006150704061157105B9F707C0C801B701D9
:1022C0000E944900CB010197F1F70894211C311CB1
:1022D000411C511C261437044804590408F4AFCD9E
:1022E00060960FB6F894DEBF0FBECDBFCF91DF91E1
:1022F0001F910F91FF90EF90DF90CF90BF90AF9024
:102300009F908F907F906F905F904F903F902F9015
:10231000089582E060E040E00E94540782E061E0BE
:1023200040E00E94540782E062E040E00E945407CF
:1023300082E063E041E00E94540788EE93E028ECDD
:1023400030E0F9013197F1F70197D9F782E060E0C9
:1023500040E00E94540782E061E041E00E9454079F
:1023600082E062E040E00E94540782E063E040E0E7
:102370000E94540788EE93E028EC30E0F901319791
:10238000F1F70197D9F782E060E040E00E9454073E
:1023900082E061E040E00E94540782E062E041E0B8
:1023A0000E94540782E063E040E00E94540788EEF8
:1023B00093E028EC30E0F9013197F1F70197D9F774
:1023C00082E060E041E00E94540782E061E040E08A
:1023D0000E94540782E062E040E00E94540782E0DD
:1023E00063E040E00E94540788EE93E028EC30E080
:1023F000F9013197F1F70197D9F7089582E060E08C
:1024000041E00E94540782E061E040E00E945407EE
:1024100082E062E040E00E94540782E063E040E036
:102420000E94540784EF91E028EC30E0F9013197E5
:10243000F1F70197D9F782E060E040E00E9454078D
:1024400082E061E041E00E94540782E062E040E007
:102450000E94540782E063E040E00E94540784EF4A
:1024600091E028EC30E0F9013197F1F70197D9F7C5
:1024700082E060E040E00E94540782E061E040E0DA
:102480000E94540782E062E041E00E94540782E02B
:1024900063E040E00E94540784EF91E028EC30E0D4
:1024A000F9013197F1F70197D9F782E060E040E058
:1024B0000E94540782E061E041E00E94540782E0FC
:1024C00062E040E00E94540782E063E040E00E9446
:1024D000540784EF91E028EC30E0F9013197F1F7EF
:1024E0000197D9F782E060E040E00E94540782E063
:1024F00061E040E00E94540782E062E040E00E9418
:10250000540782E063E041E00E94540784EF91E0C9
:1025100028EC30E0F9013197F1F70197D9F782E023
:1025200060E041E00E94540782E061E040E00E94E8
:10253000540782E062E040E00E94540782E063E0DA
:1025400040E00E94540784EF91E028EC30E0F9016C
:102550003197F1F70197D9F7089582E060E041E003
:102560000E94DB0682E061E041E00E94DB0682E03F
:1025700062E041E00E94DB0682E063E041E00E940D
:10258000DB0682E060E040E00E94540782E061E008
:1025900040E00E94540782E062E040E00E9454075D
:1025A00082E063E040E00E9454070895DF92EF92DA
:1025B000FF920F931F93DF93CF9300D000D00F9221
:1025C000CDB7DEB749835A836B837C838D83142F09
:1025D000052FF62EE72ED82E842F652F41E00E947E
:1025E000DB06812F6F2D41E00E94DB06812F6E2DCF
:1025F00041E00E94DB06812F6D2D41E00E94DB0649
:10260000812F602F40E00E945407812F6F2D40E002
:102610000E945407812F6E2D40E00E945407812FA5
:102620006D2D40E00E945407812F602F40E00E94F2
:102630005407812F6F2D40E00E945407812F6E2D8B
:1026400040E00E945407812F6D2D41E00E94540705
:1026500084EF91E028EC30E0F9013197F1F7019730
:10266000D9F7812F602F40E00E945407812F6F2DF2
:1026700041E00E945407812F6E2D40E00E945407D4
:10268000812F6D2D40E00E94540784EF91E028ECEB
:1026900030E0F9013197F1F70197D9F7812F602FD9
:1026A00040E00E945407812F6F2D40E00E945407A4
:1026B000812F6E2D41E00E945407812F6D2D40E047
:1026C0000E94540784EF91E028EC30E0F901319743
:1026D000F1F70197D9F7812F602F41E00E9454074D
:1026E000812F6F2D40E00E945407812F6E2D40E016
:1026F0000E945407812F6D2D40E00E94540784EF03
:1027000091E028EC30E0F9013197F1F70197D9F722
:102710000F900F900F900F900F90CF91DF911F911E
:102720000F91FF90EF90DF900895DF92EF92FF926C
:102730000F931F93DF93CF9300D000D00F92CDB7AC
:10274000DEB749835A836B837C838D83142F052FD7
:10275000F62EE72ED82E842F652F41E00E94DB064F
:10276000812F6F2D41E00E94DB06812F6E2D41E00D
:102770000E94DB06812F6D2D41E00E94DB06812F38
:10278000602F40E00E945407812F6F2D40E00E948F
:102790005407812F6E2D40E00E945407812F6D2D2C
:1027A00040E00E945407812F602F41E00E945407AF
:1027B000812F6F2D40E00E945407812F6E2D40E045
:1027C0000E945407812F6D2D40E00E94540784EF32
:1027D00091E028EC30E0F9013197F1F70197D9F752
:1027E000812F602F40E00E945407812F6F2D41E020
:1027F0000E945407812F6E2D40E00E945407812FC4
:102800006D2D40E00E94540784EF91E028EC30E009
:10281000F9013197F1F70197D9F7812F602F40E047
:102820000E945407812F6F2D40E00E945407812F92
:102830006E2D41E00E945407812F6D2D40E00E94D3
:10284000540784EF91E028EC30E0F9013197F1F77B
:102850000197D9F7812F602F40E00E945407812F04
:102860006F2D41E00E945407812F6E2D40E00E94A1
:102870005407812F6D2D40E00E94540784EF91E0B2
:1028800028EC30E0F9013197F1F70197D9F7812F62
:10289000602F40E00E945407812F6F2D40E00E947E
:1028A0005407812F6E2D40E00E945407812F6D2D1B
:1028B00041E00E94540784EF91E028EC30E0F901F8
:1028C0003197F1F70197D9F7812F602F41E00E94EE
:1028D0005407812F6F2D40E00E945407812F6E2DE9
:1028E00040E00E945407812F6D2D40E00E94540764
:1028F00084EF91E028EC30E0F9013197F1F701978E
:10290000D9F70F900F900F900F900F90CF91DF910C
:102910001F910F91FF90EF90DF900895DF93CF9379
:1029200000D00F92CDB7DEB7962F6983672F7A83D9
:102930008B83892F0E9434080F900F900F90CF91B6
:10294000DF910895DF93CF9300D00F92CDB7DEB71C
:10295000962F6983672F7A838B83892F40E00E94AB
:1029600054070F900F900F90CF91DF910895DF9350
:10297000CF9300D00F92CDB7DEB7962F6983672F24
:102980007A838B83892F41E00E9454070F900F9028
:102990000F90CF91DF910895DF93CF9300D00F92E6
:1029A000CDB7DEB7962F6983672F7A83482F8B8345
:1029B000892F0E94DB060F900F900F90CF91DF912F
:1029C00008950F931F9380E063E041E00E94540755
:1029D00000ED17E0C8010197F1F780E063E040E007
:1029E0000E945407C8010197F1F71F910F910895B4
:1029F000682F81E00E947A0880E061E040E00E9458
:102A0000540780E062E040E00E9454070E94E11415
:102A100080ED97E00197F1F70895813019F4862F42
:102A2000815804C0823011F4862F81540E94F8141A
:102A300080ED97E00197F1F7089581E00E94F81486
:102A400080E29EE40197F1F70895682F81E00E94EB
:102A50007A0880E061E041E00E94540780E062E093
:102A600040E00E9454070E94E11480ED97E0019736
:102A7000F1F70895DF92EF92FF920F931F93CF9398
:102A8000DF938C01F62EE42ED22E862F880F880F2E
:102A9000880F80640E94F814C0E0D0E0F801EC0FC9
:102AA000FD1F80810E9425152196C830D105B1F700
:102AB0008E2D6D2D0E940D158F2D0E942515DF91F5
:102AC000CF911F910F91FF90EF90DF9008952F927B
:102AD0003F924F925F926F927F928F929F92AF92AE
:102AE000BF92CF92DF92EF92FF920F931F93DF93EB
:102AF000CF9300D000D0CDB7DEB77B018C0120E0B2
:102B000030E040E050E00E941903882321F480E384
:102B10000E9425159AC0C801B70120E030E040E0CE
:102B200050E00E94A90387FD03C01701280109C0D6
:102B30001701280157FA509457F850948DE20E94DB
:102B40002515C801B7010E94D9037B018C0181E0E2
:102B5000A82EB12CC12CD12C6624772443011BC094
:102B6000C801B7012AE030E040E050E00E941B19A4
:102B7000C901DA017C018D010894611C711C811C62
:102B8000911CC601B5012AE030E040E050E00E940F
:102B9000DA185B016C01E114F1040105110501F77C
:102BA000C201B10120E030E44CE156E40E941F0272
:102BB0000E94D9031B012C01C601B50128EE33E0A8
:102BC00040E050E00E94DA185B016C0139C02982B4
:102BD0003A824B825C82611471048104910419F47D
:102BE0008EE20E942515B101C201A60195010E9445
:102BF000F9181B012C01C601B5012AE030E040E0C4
:102C000050E00E94F918122F032FF42EE52E08949D
:102C1000610871088108910869817A818B819C81A2
:102C2000A60195010E94F918822F805D0E9425154A
:102C3000212F302F4F2D5E2DC901DA015C016D016E
:102C4000A114B104C104D10411F60F900F900F909C
:102C50000F90CF91DF911F910F91FF90EF90DF9038
:102C6000CF90BF90AF909F908F907F906F905F902C
:102C70004F903F902F9008956F927F928F929F92E6
:102C8000AF92BF92CF92DF92EF92FF920F931F937A
:102C90007B018C01611571058105910521F480E3AB
:102CA0000E9425155DC097FD03C05B016C010AC041
:102CB000AA24BB246501A61AB70AC80AD90A8DE25C
:102CC0000E94251591E0692E712C812C912CC80150
:102CD000B7012AE030E040E050E00E941B19C90132
:102CE000DA017C018D01C401B3012AE030E040E04B
:102CF00050E00E94DA183B014C01E114F104010597
:102D0000110529F70E94F918C901DA013C014D01AA
:102D100022C0B501C601A40193010E94F918122F27
:102D2000B501C601A40193010E94F918AC01CB01C1
:102D3000DA015C016D01C401B3012AE030E040E03A
:102D400050E00E94F918C901DA013C014D01812FC0
:102D5000805D0E9425156114710481049104C9F6F7
:102D60001F910F91FF90EF90DF90CF90BF90AF90A9
:102D70009F908F907F906F9008951F93CF93DF93D4
:102D8000EC0110E003C00E9425151F5FFE01E10F5A
:102D9000F11D80818823B9F7DF91CF911F910895AC
:102DA0000F931F9381E06FEF0E94690880E061E05C
:102DB00041E00E94DB0680E062E041E00E94DB0629
:102DC00080E063E041E00E94DB060E941D1584EF75
:102DD00091E028EC30E0F9013197F1F70197D9F74C
:102DE00082E00E94F81484EF91E028EC30E0F901D1
:102DF0003197F1F70197D9F788E30E94F81400EDB5
:102E000017E0C8010197F1F78CE00E94F814C8019F
:102E10000197F1F70E941D1586E00E94F8141F919A
:102E20000F9108952F923F924F925F926F927F92EF
:102E30008F929F92AF92BF92DF92EF92FF920F9389
:102E40001F93DF93CF93CDB7DEB72B970FB6F894D0
:102E5000DEBF0FBECDBF0E949B06DE011496E9E9DE
:102E6000F1E088E001900D928150E1F70E94D016C8
:102E700082E060E041E00E94DB0682E061E041E048
:102E80000E94DB0682E062E041E00E94DB0682E015
:102E900063E041E00E94DB0681E08B8380E065E037
:102EA00041E00E94DB0683E064E040E00E94DB0634
:102EB0000E94130980E064E041E00E94DB06DD240B
:102EC00058E0452E512C48ECA42EB12C34E0632E52
:102ED000712C6C0E7D1E23E0822E912C8C0E9D1E7B
:102EE00090E4292E9CE9392EB2016D1971098827C9
:102EF00077FD8095982F0E943C1680E690E00E9416
:102F0000BD160E94B80624EC39E0F5013197F1F7BF
:102F100021503040D1F713C010E0C30161E042E01E
:102F2000212F0E943A151F5FD116B8F783E062E0A7
:102F3000AE014F5F5F4F0E9400080E94B8068337C2
:102F400059F38981813009F055C00E941D1581E037
:102F500061E00E940D15D39489E0D81639F48DE60E
:102F600090E00E94BD1688E0D82E44C0B2016D19D1
:102F70007109882777FD8095982F0E943C1680E67E
:102F800090E00E94BD1610E0C30161E042E0212FF5
:102F90000E943A151F5FD116B8F782E061E041E068
:102FA0000E94540788EE93E0F5013197F1F70197FD
:102FB000D9F782E061E040E00E94540707C083E057
:102FC00062E0AE014F5F5F4F0E940008898181304F
:102FD000B1F382E060E041E00E94540788EE93E0A4
:102FE000F5013197F1F70197D9F782E060E040E011
:102FF0000E94540783E063E0AE014E5F5F4F0E9482
:1030000000088A81813009F057C0DA940E941D15AA
:1030100081E061E00E940D15B2016D1971098827E8
:1030200077FD8095982F0E943C1680E690E00E94E4
:10303000BD1610E0C30161E042E0212F0E943A1565
:103040001F5FD116B8F782E063E041E00E945407A9
:1030500088EE93E0F5013197F1F70197D9F782E017
:1030600063E040E00E94540713C0409194015091E6
:1030700095016091960170919701809198010E944D
:10308000951383E063E0AE014E5F5F4F0E9400083E
:103090008A81813051F382E062E041E00E9454076E
:1030A00088EE93E0F5013197F1F70197D9F782E0C7
:1030B00062E040E00E94540783E064E0A4010E94C3
:1030C00000088B818823A9F4C1010197F1F780E002
:1030D00065E041E00E94540783E064E0A4010E949F
:1030E000000888EE93E0F5013197F1F70197D9F7E1
:1030F00016C08130A1F4C1010197F1F780E065E0CD
:1031000040E00E94540783E064E0A4010E940008AC
:1031100088EE93E0F5013197F1F70197D9F780E058
:103120000E9475097B018C0120E030E040EF51E402
:103130000E9479038823ECF080E064E041E00E9483
:1031400054070E941D158CE790E00E94BD1681E097
:103150006BE00E940D15C801B7010E94D9030E94BF
:103160003C1688EE93E0F5013197F1F70197D9F716
:103170001CC00E941D1580E064E040E00E945407DE
:103180008CE790E00E94BD1681E06BE00E940D1577
:10319000C801B7010E94D9030E943C1688EE93E053
:1031A000F5013197F1F70197D9F781E061E00E94CD
:1031B0000D159ACE629FD001739FF001829FE00DA2
:1031C000F11D649FE00DF11D929FF00D839FF00DA6
:1031D000749FF00D659FF00D9927729FB00DE11D52
:1031E000F91F639FB00DE11DF91FBD01CF0111242F
:1031F0000895A1E21A2EAA1BBB1BFD010DC0AA1F38
:10320000BB1FEE1FFF1FA217B307E407F50720F04F
:10321000A21BB30BE40BF50B661F771F881F991FCA
:103220001A9469F760957095809590959B01AC0113
:10323000BD01CF01089597FB092E05260ED057FD3D
:1032400004D0D7DF0AD0001C38F450954095309553
:1032500021953F4F4F4F5F4F0895F6F7909580951A
:10326000709561957F4F8F4F9F4F08952F923F929A
:103270004F925F926F927F928F929F92AF92BF9286
:10328000CF92DF92EF92FF920F931F93CF93DF9332
:10329000CDB7DEB7CA1BDB0B0FB6F894DEBF0FBE8F
:1032A000CDBF09942A88398848885F846E847D84DC
:1032B0008C849B84AA84B984C884DF80EE80FD80DE
:1032C0000C811B81AA81B981CE0FD11D0FB6F89454
:0E32D000DEBF0FBECDBFED010895F894FFCF15
:1032DE0020467265652053706163657300476172A5
:1032EE006167652069732066756C6C005468652093
:1032FE0074656D703A2000000000000000000000B0
:10330E000102020303030304040404040404040579
:10331E00050505050505050505050505050505064E
:10332E00060606060606060606060606060606062F
:10333E00060606060606060606060606060606071E
:10334E0007070707070707070707070707070707FF
:10335E0007070707070707070707070707070707EF
:10336E0007070707070707070707070707070707DF
:10337E0007070707070707070707070707070708CE
:10338E0008080808080808080808080808080808AF
:10339E00080808080808080808080808080808089F
:1033AE00080808080808080808080808080808088F
:1033BE00080808080808080808080808080808087F
:1033CE00080808080808080808080808080808086F
:1033DE00080808080808080808080808080808085F
:1033EE00080808080808080808080808080808084F
:1033FE000808080808080808080808080808080245
:10340E0000010203020405060706060F0E0E0F0E3C
:02341E000000AC
:00000001FF
