:100000000C942A000C9447000C9447000C94470071
:100010000C9447000C9447000C9447000C94470044
:100020000C9447000C9447000C9447000C94470034
:100030000C9447000C9447000C9447000C94470024
:100040000C9447000C9447000C9447000C94470014
:100050000C94470011241FBECFE5D8E0DEBFCDBF12
:1000600012E0A0E6B0E0E4EFF1E302C005900D92EB
:10007000AA3FB107D9F712E0AAEFB2E001C01D9282
:10008000AF3FB107E1F70E94F1170C94F8180C94F8
:100090000000A0E2B0E0EFE4F0E00C94C118698346
:1000A0007A838B839C832D833E834F835887CE0135
:1000B0000196BE01675F7F4F0E94CC02CE0105967C
:1000C000BE016F5E7F4F0E94CC029985923088F00E
:1000D00089898230C8F0943019F4823051F404C018
:1000E000843029F4923081F482EE92E0C6C09230DE
:1000F00049F420E09A858A89981321E02A87CE0165
:100100000996BBC0823049F420E09A858A89981309
:1001100021E02A8BCE014196B0C02D843E844F84CD
:1001200058886D887E888F88988CEE24FF248701FC
:10013000AA24BB24650140E050E060E070E0E0E00C
:10014000F0E0C10181709070892BE9F0E60CF71C9A
:10015000081D191D9A01AB012A0D3B1D4C1D5D1D8B
:1001600080E090E0A0E0B0E0E614F704080519058F
:1001700020F481E090E0A0E0B0E0BA01A901480FCE
:10018000591F6A1F7B1FAA0CBB1CCC1CDD1C97FED1
:1001900008C081E090E0A0E0B0E0A82AB92ACA2A0D
:1001A000DB2A3196E032F10549F0660C771C881C99
:1001B000991C5694479437942794C3CFFA85EA89BB
:1001C0002B893C898B859C85280F391F2E5F3F4FDB
:1001D00017C0CA0181709070892B61F01695079540
:1001E000F794E79480E090E0A0E0B0E8E82AF92AEC
:1001F0000A2B1B2B76956795579547952F5F3F4F99
:1002000077FDE7CF0CC0440F551F661F771F17FD02
:100210004160EE0CFF1C001F111F21503040403088
:1002200090E0590790E0690790E4790760F32B8F1D
:100230003C8FDB01CA018F779070A070B070803462
:100240009105A105B10561F447FD0AC0E114F1046F
:100250000105110529F0405C5F4F6F4F7F4F4078DB
:100260001A8EFE1711F081E08A8F4D8F5E8F6F8F8F
:1002700078A383E0898FCE0149960E94F701A0966A
:10028000E2E10C94DD18A8E1B0E0E9E4F1E00C94BF
:10029000CD1869837A838B839C832D833E834F8320
:1002A000588789E0E82EF12CEC0EFD1ECE01019658
:1002B000B7010E94CC028E010F5E1F4FCE01059642
:1002C000B8010E94CC028985823040F08989823051
:1002D00028F0C701B8010E94440301C081E068967C
:1002E000E6E00C94E918A8E1B0E0E9E7F1E00C944D
:1002F000CD1869837A838B839C832D833E834F83C0
:10030000588789E0E82EF12CEC0EFD1ECE010196F7
:10031000B7010E94CC028E010F5E1F4FCE010596E1
:10032000B8010E94CC028985823040F089898230F0
:1003300028F0C701B8010E94440301C081E068961B
:10034000E6E00C94E918ACE0B0E0E9EAF1E00C94E6
:10035000D11869837A838B839C83CE010196BE0179
:100360006B5F7F4F0E94CC028D81823061F18230C1
:1003700050F1843021F48E81882351F12EC02F81D9
:10038000388537FD20C06E812F3131051CF0662382
:10039000F9F023C08EE190E0821B930B29853A850A
:1003A0004B855C8504C056954795379527958A956A
:1003B000D2F76623B1F050954095309521953F4F87
:1003C0004F4F5F4F0EC020E030E040E050E009C0EA
:1003D0002FEF3FEF4FEF5FE704C020E030E040E059
:1003E00050E8B901CA012C96E2E00C94ED18DF92B6
:1003F000EF92FF920F931F93FC01E480F58006813A
:100400001781D1808081823048F480E090E0A0E1C3
:10041000B0E0E82AF92A0A2B1B2BA5C0843009F486
:100420009FC0823021F4EE24FF24870105C0E1142F
:10043000F1040105110519F4E0E0F0E096C06281D5
:1004400073819FEF623879070CF05BC022E83FEFC1
:10045000261B370B2A3131052CF020E030E040E03C
:1004600050E02AC0B801A701022E04C07695679516
:10047000579547950A94D2F781E090E0A0E0B0E06C
:1004800004C0880F991FAA1FBB1F2A95D2F7019796
:10049000A109B1098E219F21A023B1230097A105B5
:1004A000B10521F081E090E0A0E0B0E09A01AB015D
:1004B000282B392B4A2B5B2BDA01C9018F779070DF
:1004C000A070B07080349105A105B10539F427FF03
:1004D00009C0205C3F4F4F4F5F4F04C0215C3F4F2E
:1004E0004F4F5F4FE0E0F0E02030A0E03A07A0E09F
:1004F0004A07A0E45A0710F0E1E0F0E079018A0130
:1005000027C06038710564F5FB01E158FF4FD80141
:10051000C7018F779070A070B07080349105A105ED
:10052000B10539F4E7FE0DC080E490E0A0E0B0E052
:1005300004C08FE390E0A0E0B0E0E80EF91E0A1FCF
:100540001B1F17FF05C016950795F794E794319682
:1005500087E016950795F794E7948A95D1F705C03B
:10056000EE24FF248701EFEFF0E06E2F67956627FA
:100570006795902F9F77D794DD24D7948E2F8695FB
:10058000492F462B582F5D29B701CA011F910F91A2
:10059000FF90EF90DF900895FC01DB0140815181D5
:1005A0002281622F6F7770E0221F2227221F938102
:1005B000892F880F822B282F30E0991F9927991FA8
:1005C00011969C93119721153105A9F541155105F7
:1005D0006105710511F482E037C082E89FEF139640
:1005E0009C938E9312979A01AB0167E0220F331F01
:1005F000441F551F6A95D1F783E08C930DC0220FDD
:10060000331F441F551F12968D919C91139701978C
:1006100013969C938E931297203080E0380780E0E9
:10062000480780E4580758F314962D933D934D9353
:100630005C93179708952F3F310579F441155105C3
:100640006105710519F484E08C93089564FF03C07B
:1006500081E08C9312C01C9210C02F57304013962B
:100660003C932E93129783E08C9387E0440F551FA1
:10067000661F771F8A95D1F7706414964D935D932A
:100680006D937C93179708951F93DC01FB019C9158
:10069000923008F447C08081823008F443C094301F
:1006A00051F411961C91843099F58181682F70E086
:1006B000611B71093FC0843021F0923031F48230E7
:1006C000B9F18181882389F12DC011961C91119770
:1006D0008230F1F081811817D9F412962D913C9156
:1006E0001397828193818217930794F02817390713
:1006F000BCF014968D919D910D90BC91A02D2481FC
:10070000358146815781281739074A075B0718F456
:10071000112341F00AC082179307A407B50740F4DC
:10072000112319F061E070E005C06FEF7FEF02C0A8
:1007300060E070E0CB011F910895539A549A86E8C7
:1007400080BD83E389B908955D9BFECF8CB9089580
:1007500020E040E65AEE07C0DA011197F1F75D9B01
:10076000FECFECB92F5FFC01E20FF11DE081EE231B
:1007700099F708955F9BFECF8CB108951F93CF9397
:10078000DF93EC0110E05F9BFECF8CB188830E9469
:100790007A0988810E94FD071F5F198221961A300D
:1007A00091F7DF91CF911F91089510B886B78E7F92
:1007B00086BF86B7816086BF089584EA86BF06B685
:1007C00007FEFDCF81B1887F0895880F83B9662326
:1007D00011F4189A03C0613009F4189884E886BFB0
:1007E00086B78F7D86BF06B607FEFDCF81B1887FB5
:1007F000089583B984E886BF06B607FEFDCF81B1B0
:10080000887F089584E986BF81B1887F089581B18A
:10081000887F0895FC01662311F484EC06C06130E2
:1008200029F484E886BF86B78F7B86BF06B607FEAD
:10083000FDCF83B1808381B1887F0895843008F033
:1008400075C0683008F072C04130B1F5813099F060
:10085000813030F08230D1F0833009F067C021C0A0
:100860002AB381E090E002C0880F991F6A95E2F7F1
:10087000282B2ABB089527B381E090E002C0880F9F
:10088000991F6A95E2F7282B27BB089524B381E0CE
:1008900090E002C0880F991F6A95E2F7282B24BBCD
:1008A000089521B381E090E002C0880F991F6A95F6
:1008B000E2F7282B21BB08954423C1F5813099F03C
:1008C000813028F08230D9F0833081F524C02AB3FA
:1008D00081E090E002C0880F991F6A95E2F7809549
:1008E00082238ABB089527B381E090E002C0880F7D
:1008F000991F6A95E2F78095822387BB089524B3F8
:1009000081E090E002C0880F991F6A95E2F7809518
:10091000822384BB089521B381E090E002C0880F58
:10092000991F6A95E2F78095822381BB0895413033
:10093000B1F5813099F0813030F08230D1F08330E0
:1009400009F067C021C02BB381E090E002C0880F9E
:10095000991F6A95E2F7282B2BBB089528B381E0F5
:1009600090E002C0880F991F6A95E2F7282B28BBF8
:10097000089525B381E090E002C0880F991F6A9521
:10098000E2F7282B25BB089522B381E090E002C056
:10099000880F991F6A95E2F7282B22BB08954423FC
:1009A000C1F5813099F0813028F08230D9F0833060
:1009B00081F524C02BB381E090E002C0880F991F1D
:1009C0006A95E2F7809582238BBB089528B381E076
:1009D00090E002C0880F991F6A95E2F78095822304
:1009E00088BB089525B381E090E002C0880F991F6D
:1009F0006A95E2F78095822385BB089522B381E052
:100A000090E002C0880F991F6A95E2F780958223D3
:100A100082BB0895813099F0813028F08230D9F07E
:100A2000833081F524C02BB381E090E002C0880FB1
:100A3000991F6A95E2F7809582238BBB089528B3AE
:100A400081E090E002C0880F991F6A95E2F78095D7
:100A5000822388BB089525B381E090E002C0880F0F
:100A6000991F6A95E2F78095822385BB089522B38A
:100A700081E090E002C0880F991F6A95E2F78095A7
:100A8000822382BB0895FA01813049F0813028F039
:100A9000823039F0833051F517C029B303C026B333
:100AA00001C023B381E090E0062E02C0880F991F99
:100AB0000A94E2F730E08223932302C0959587954C
:100AC0006A95E2F78083089520B381E090E0062ED6
:100AD00002C0880F991F0A94E2F730E08223932323
:100AE00002C0959587956A95E2F7808308958130D5
:100AF00091F0813028F08230C9F0833061F521C057
:100B00002BB381E090E002C0880F991F6A95E2F74D
:100B100028272BBB089528B381E090E002C0880FFE
:100B2000991F6A95E2F7282728BB089525B381E02D
:100B300090E002C0880F991F6A95E2F7282725BB2D
:100B4000089522B381E090E002C0880F991F6A9552
:100B5000E2F7282722BB0895813049F0813028F040
:100B6000823039F0833041F406C06ABB089567BB18
:100B7000089564BB089561BB0895813049F08130C8
:100B800028F0823039F0833041F406C06BBB089501
:100B900068BB089565BB089562BB0895813049F034
:100BA000813028F0823039F0833041F406C01BBA1E
:100BB000089518BA089515BA089512BA0895FB0158
:100BC000813049F0813028F0823039F0833051F49F
:100BD00007C089B303C086B301C083B3808308957F
:100BE00080B380830895813059F0813028F08230BD
:100BF00059F0833081F40CC08BB380958BBB089582
:100C000088B3809588BB089585B3809585BB08958A
:100C100082B3809582BB0895813071F0813028F0D5
:100C2000823089F08330E1F415C08BB38F708BBBB9
:100C30008BB3862B8BBB089588B38F7088BB88B32A
:100C4000862B88BB089585B38F7085BB85B3862BB3
:100C500085BB089582B38F7082BB82B3862B82BB23
:100C60000895813071F0813028F0823089F083302E
:100C7000E1F415C08BB3807F8BBB8BB3862B8BBB12
:100C8000089588B3807F88BB88B3862B88BB08957E
:100C900085B3807F85BB85B3862B85BB089582B3E2
:100CA000807F82BB82B3862B82BB0895DF93CF9374
:100CB00000D00F92CDB7DEB7962F6983672F7A8366
:100CC0008B83892F0E9477050F900F900F90CF9103
:100CD000DF910895DF93CF9300D00F92CDB7DEB7A9
:100CE000962F6983672F7A838B83892F40E00E9438
:100CF00097040F900F900F90CF91DF910895DF939D
:100D0000CF9300D00F92CDB7DEB7962F6983672FB0
:100D10007A83482F8B83892F0E9497040F900F901E
:100D20000F90CF91DF910895DF93CF9300D00F9272
:100D3000CDB7DEB7962F6983672F7A83482F8B83D1
:100D4000892F0E941E040F900F900F90CF91DF917A
:100D500008958F929F92BF92CF92DF92EF92FF926F
:100D60000F931F93DF93CF930F92CDB7DEB7BB24C2
:100D7000BA94CC24DD247E010894E11CF11C98EC8B
:100D8000892E912C0C2D0C5F80E0602F40E00E949A
:100D9000970480E060E0A7010E94430589818823D1
:100DA00011F410E01DC080E061E0A7010E9443053E
:100DB0008981882311F411E013C080E062E0A7016B
:100DC0000E9443058981882311F412E009C080E064
:100DD00063E0A7010E9443058981882319F513E088
:100DE00088EE93E0F4013197F1F70197D9F780E0AD
:100DF000612FA7010E9443058981882359F4E12FBF
:100E0000F0E0EE0FFF1FEE0FFF1FEC0DFD1DE65192
:100E1000FD4FB08080E0612FA7010E9443058981CA
:100E20008823C1F380E0602F41E00E94970408947A
:100E3000C11CD11C84E0C816D10409F0A3CF8B2DAE
:100E40000F90CF91DF911F910F91FF90EF90DF9066
:100E5000CF90BF909F908F90089580E060E040E039
:100E60000E941E0480E061E040E00E941E0480E0D9
:100E700062E040E00E941E0480E063E040E00E94E7
:100E80001E0480E060E041E00E94970480E061E0A1
:100E900041E00E94970480E062E041E00E949704F4
:100EA00080E063E041E00E94970480E064E041E07C
:100EB0000E941E0480E065E041E00E941E0480E084
:100EC00066E041E00E941E0480E067E041E00E948D
:100ED0001E0480E064E041E00E94970480E065E049
:100EE00041E00E94970480E066E041E00E949704A0
:100EF00080E067E041E00E94970408951F93DF932C
:100F0000CF930F92CDB7DEB7182F19820E94DD0361
:100F100080E561E00E94E503812F0E94F9030E94B1
:100F2000DD0380E560E00E94E503CE01019661E00B
:100F30000E940A040E94020489810F90CF91DF91E0
:100F40001F9108950F931F93182F062F0E94DD0302
:100F500080E561E00E94E503812F0E94F903802F64
:100F60000E94F9030E9402041F910F9108950E94AC
:100F7000D503089508950F931F9382E066E041E042
:100F80000E94970400ED17E0C8010197F1F782E095
:100F900066E040E00E949704C8010197F1F71F91B5
:100FA0000F910895682F81E00E94BD0582E067E0FF
:100FB00040E00E94970482E065E040E00E949704D0
:100FC0000E94BB0780ED97E00197F1F70895882311
:100FD00029F4862F80680E94D2070895813021F479
:100FE000862F80540E94D207089581E00E94D20784
:100FF00080E29EE40197F1F708951F93182F82E095
:1010000067E041E00E94970482E065E040E00E94D2
:10101000970481E0612F0E94BD050E94BB071F91CC
:1010200008952F923F924F925F926F927F928F928C
:101030009F92AF92BF92CF92DF92EF92FF920F9367
:101040001F93DF93CF9300D000D0CDB7DEB77B01E5
:101050008C0120E030E040E050E00E944301882312
:1010600021F480E30E94FD079AC0C801B70120E087
:1010700030E040E050E00E94730187FD03C017019B
:10108000280109C01701280157FA509457F85094C5
:101090008DE20E94FD07C801B7010E94A3017B01F8
:1010A0008C0181E0A82EB12CC12CD12C6624772490
:1010B00043011BC0C801B7012AE030E040E050E026
:1010C0000E94A618C901DA017C018D010894611CF7
:1010D000711C811C911CC601B5012AE030E040E082
:1010E00050E00E9465185B016C01E114F1040105F8
:1010F000110501F7C201B10120E030E44CE156E4F2
:101100000E9449000E94A3011B012C01C601B501E8
:1011100028EE33E040E050E00E9465185B016C016E
:1011200039C029823A824B825C8261147104810445
:10113000910419F48EE20E94FD07B101C201A601DB
:1011400095010E9484181B012C01C601B5012AE0FB
:1011500030E040E050E00E948418122F032FF42E5C
:10116000E52E0894610871088108910869817A81E7
:101170008B819C81A60195010E948418822F805D3D
:101180000E94FD07212F302F4F2D5E2DC901DA015E
:101190005C016D01A114B104C104D10411F60F90DA
:1011A0000F900F900F90CF91DF911F910F91FF90B3
:1011B000EF90DF90CF90BF90AF909F908F907F90F7
:1011C0006F905F904F903F902F9008956F927F9215
:1011D0008F929F92AF92BF92CF92DF92EF92FF9247
:1011E0000F931F937B018C0161157105810591059A
:1011F00021F480E30E94FD075DC097FD03C05B0101
:101200006C010AC0AA24BB246501A61AB70AC80A41
:10121000D90A8DE20E94FD0791E0692E712C812C84
:10122000912CC801B7012AE030E040E050E00E9474
:10123000A618C901DA017C018D01C401B3012AE0BD
:1012400030E040E050E00E9465183B014C01E114A1
:10125000F1040105110529F70E948418C901DA017A
:101260003C014D0122C0B501C601A40193010E94B9
:101270008418122FB501C601A40193010E9484189D
:10128000AC01CB01DA015C016D01C401B3012AE0BC
:1012900030E040E050E00E948418C901DA013C01CE
:1012A0004D01812F805D0E94FD076114710481044E
:1012B0009104C9F61F910F91FF90EF90DF90CF90AE
:1012C000BF90AF909F908F907F906F9008951F93E5
:1012D000CF93DF93EC0110E003C00E94FD071F5F76
:1012E000FE01E10FF11D80818823B9F7DF91CF91D5
:1012F0001F9108950F931F9381E06FEF0E94AC053B
:1013000082E067E041E00E941E0482E065E041E087
:101310000E941E0482E066E041E00E941E040E94DA
:10132000F50784EF91E028EC30E0F9013197F1F70F
:101330000197D9F782E00E94D20784EF91E028EC70
:1013400030E0F9013197F1F70197D9F788E30E946E
:10135000D20700ED17E0C8010197F1F78CE00E9479
:10136000D207C8010197F1F70E94F50786E00E94B5
:10137000D2071F910F910895FF920F931F93CF9360
:10138000DF930E94F50780E690E00E94670981E004
:1013900060E00E94E7078DE690E00E94670984EC18
:1013A00099E028EC30E0F9013197F1F70197D9F78E
:1013B0000E94F50786E790E00E94670984EC99E0B7
:1013C00028EC30E0F9013197F1F70197D9F70E9445
:1013D000F50782E890E00E94670984EC99E028EC28
:1013E00030E0F9013197F1F70197D9F70E94F5073D
:1013F00087E70E94A4030E94A90682E990E00E9468
:10140000670981E060E00E94E70710E0FF24C8EC74
:10141000D0E087E70E94A4030E94A906082F1123A9
:1014200009F04FC011E087E70E94A4030E94A906BB
:10143000082F8F3FD9F38336D1F4FF2009F45EC023
:10144000125081E0612F0E94E70780E20E94FD07B1
:1014500080ED97E0FE013197F1F70197D9F781E030
:10146000612F0E94E707123040F5FF2426C0153097
:1014700009F10E94FD0780ED97E0FE013197F1F739
:101480000197D9F7612F615081E00E94E7078AE256
:101490000E94FD0780ED97E0FE013197F1F701977B
:1014A000D9F7812F90E00A96602F0E94A207FF24AF
:1014B000F39403C08D3359F014E01F5F163008F425
:1014C000B2CF0336D9F011E00D3309F0A2CF0E945C
:1014D000F50781EA90E00E94670981E060E00E94E0
:1014E000E7078EEA90E00E94670984EC99E028EC17
:1014F00030E0F9013197F1F70197D9F71092FB022B
:1015000080E38093FC020E94F507DF91CF911F9149
:101510000F91FF900895CF92DF92EF92FF920F9379
:101520001F93DF93CF9300D0CDB7DEB70E94F507AE
:101530008BEB90E00E94670981E060E00E94E70782
:1015400089EC90E00E94670984EC99E028EC30E097
:10155000F9013197F1F70197D9F70E94F50782E871
:1015600090E00E94670984EC99E028EC30E0F901F2
:101570003197F1F70197D9F70E94F50787ED90E0D1
:101580000E94670981E060E00E94E70700E051E007
:10159000C52ED12C48ECE42EF12C87E70E94A40341
:1015A000DA82C98283C087E70E94A4030E94A90649
:1015B000182F8F3FD9F38336A9F4002309F009C20D
:1015C0001A82198269817A8181E00E94E70780E2AC
:1015D0000E94FD0788EE93E0F7013197F1F701973C
:1015E000D9F721C089819A8105970CF04FC02CC092
:1015F00069817A81625081E00E94E70780E20E945F
:10160000FD0780ED97E0F7013197F1F70197D9F7E2
:1016100069817A81625081E00E94E70789819A811D
:1016200002979A83898389819A81019721F0898120
:101630009A81892BB1F51A82198269817A8181E0B8
:101640000E94E70700E02DC0812F0E94FD0780ED7A
:1016500097E0F7013197F1F70197D9F769817A811E
:10166000615081E00E94E7078AE20E94FD0780ED59
:1016700097E0F7013197F1F70197D9F789819A81BE
:101680000296612F0E94A20701E00BC01D3321F4D6
:1016900089819A81059794F489819A8101979A8327
:1016A000898389819A8101969A83898389819A8124
:1016B00006970CF478CF1D3309F06FCF0E94F50721
:1016C00086EE90E00E94670981E060E00E94E707F3
:1016D0008EEA90E00E94670984EC99E028EC30E003
:1016E000F9013197F1F70197D9F70E94F50781EFDA
:1016F00090E00E94670981E060E00E94E7071DE337
:1017000000E031E0C32ED12C28ECE22EF12C87E74B
:101710000E94A403DA82C98280C00E94A906182F01
:101720008F3FD9F38336A9F4002309F056C11A82FA
:10173000198269817A8181E00E94E70780E20E9434
:10174000FD0780ED97E0F7013197F1F70197D9F7A1
:1017500021C089819A8105970CF04FC02CC0698106
:101760007A81625081E00E94E70780E20E94FD07D3
:1017700080ED97E0F7013197F1F70197D9F769818B
:101780007A81625081E00E94E70789819A810297FD
:101790009A83898389819A81019721F089819A812D
:1017A000892BB1F51A82198269817A8181E00E94C0
:1017B000E70700E02DC0812F0E94FD0780ED97E034
:1017C000F7013197F1F70197D9F769817A81615073
:1017D00081E00E94E7078AE20E94FD0780ED97E022
:1017E000F7013197F1F70197D9F789819A81069628
:1017F000612F0E94A20701E00BC01D3321F48981F3
:101800009A81059794F489819A8101979A838983B3
:1018100089819A8101969A83898389819A81069721
:101820000CF47BCF1D3309F072CF0E94F50786EED2
:1018300090E00E94670981E060E00E94E7078EEA7D
:1018400090E00E94670984EC99E028EC30E0F9010F
:101850003197F1F70197D9F70E94F50780E091E001
:101860000E94670981E060E00E94E7071DE300E055
:1018700091E0C92ED12C88ECE82EF12C87E70E944C
:10188000A403DA82C98280C00E94A906182F8F3F64
:10189000D9F38336A9F4002309F0A3C01A82198270
:1018A00069817A8181E00E94E70780E20E94FD075A
:1018B00080ED97E0F7013197F1F70197D9F721C053
:1018C00089819A8105970CF04FC02CC069817A817B
:1018D000625081E00E94E70780E20E94FD0780EDF0
:1018E00097E0F7013197F1F70197D9F769817A818C
:1018F000625081E00E94E70789819A8102979A836A
:10190000898389819A81019721F089819A81892B24
:10191000B1F51A82198269817A8181E00E94E70714
:1019200000E02DC0812F0E94FD0780ED97E0F701B8
:101930003197F1F70197D9F769817A81615081E098
:101940000E94E7078AE20E94FD0780ED97E0F70119
:101950003197F1F70197D9F789819A810A96612F1A
:101960000E94A20701E00BC01D3321F489819A81F6
:10197000059794F489819A8101979A838983898153
:101980009A8101969A83898389819A8106970CF4BA
:101990007BCF1D3309F072CF0E94F50786EE90E0F1
:1019A0000E94670981E060E00E94E7078EEA90E00C
:1019B0000E94670982E090E061E30E94A20784EC44
:1019C00099E028EC30E0F9013197F1F70197D9F768
:1019D0000CC0013009F027CE0BCE013009F0DACE71
:1019E000BECE013009F08DCF71CF0F900F90CF9107
:1019F000DF911F910F91FF90EF90DF90CF900895AE
:101A00008F929F92BF92CF92DF92EF92FF920F93AD
:101A10001F93DF93CF930F92CDB7DEB781E090E0B5
:101A20000E947E07B82E0E94F5078FE091E00E9489
:101A3000670984EC99E028EC30E0F9013197F1F77F
:101A40000197D9F70E94F50786E790E00E946709A1
:101A500084EC99E028EC30E0F9013197F1F7019737
:101A6000D9F70E94F50782E890E00E94670984ECAC
:101A700099E028EC30E0F9013197F1F70197D9F7B7
:101A80000E94F507FF24FA941982F8ECCF2ED12C8E
:101A9000E0E48E2EECE99E2E04C073E6F72E81E082
:101AA000898387E70E94A403E3E6FE1629F10E94DA
:101AB000A906182F0E94F50780E291E00E946709AD
:101AC00081E060E00E94E70781E391E00E946709FE
:101AD00084EC99E0F6013197F1F70197D9F70E946C
:101AE000F50787E391E00E94670981E060E00E94CA
:101AF000E707133609F0F2C01092FC021092FB02C5
:101B00000E94F5070F90CF91DF911F910F91FF90E9
:101B1000EF90DF90CF90BF909F908F90089587E7D0
:101B20000E94A4030E94A906F82EFFEF8F17B9F3B5
:101B30008BE2F81609F4C7C0EDE3FE1609F4D0C035
:101B4000F3E6FF1609F4ADCF103249F78F2D0E944E
:101B5000FD071F2DE4CF0E94F507812F81538530AB
:101B600078F199C01032C1F40E94F50785E491E044
:101B70000E94670984EC99E0F6013197F1F701972B
:101B8000D9F70E94F50787E391E00E94670981E099
:101B900060E00E94E707C3CF0E94F5078EE491E062
:101BA0000E94670984EC99E0F6013197F1F70197FB
:101BB000D9F70E94F50787E391E00E9467098AC080
:101BC00061E3E62E0FE087E70E94A403802F90E0F8
:101BD0000E947E07181711F01E1571F0802F90E0FB
:101BE0000E947E07181759F00B5F043229F0E39426
:101BF000C4010197F1F7E7CF89818130B1F510E099
:101C0000C80160E30E94A207BA9481E090E06B2DC6
:101C10000E94A20781E090E00E947E07B82E780122
:101C20000894E11CF11C0B5F1F4FC70160E30E9489
:101C3000A2070894E11CF11CE016F106B1F70E941E
:101C4000F5078FE591E00E94670981E060E00E945E
:101C5000E7078EEA90E00E94670984EC99E0F601BC
:101C60003197F1F70197D9F718CF0E94F5078CE665
:101C700091E00E94670981E060E00E94E7078DE73C
:101C800091E00E94670984EC99E0F6013197F1F741
:101C90000197D9F715C00E94F50787E891E00E94E7
:101CA000670981E060E00E94E7078DE791E00E940C
:101CB000670984EC99E0F6013197F1F70197D9F7BC
:101CC0000E94F507EECE81E060E00E94E70780E227
:101CD0000E94FD0781E060E00E94E70710E21FCF4D
:101CE000103308F43FCF37CF8F929F92AF92BF92BD
:101CF000DF92EF92FF920F931F93DF93CF930F9298
:101D0000CDB7DEB781E090E00E947E07D82E0E941A
:101D1000F50782E991E00E94670984EC99E028ECDC
:101D200030E0F9013197F1F70197D9F70E94F507F3
:101D300086E790E00E94670984EC99E028EC30E0A7
:101D4000F9013197F1F70197D9F70E94F50782E879
:101D500090E00E94670984EC99E028EC30E0F901FA
:101D60003197F1F70197D9F70E94F507EE24EA942D
:101D7000198208EC802E912C10E4A12E1CE9B12EC2
:101D800002C0B3E6EB2E87E70E94A40383E6E816C1
:101D900029F10E94A906182F0E94F50780E291E020
:101DA0000E94670981E060E00E94E70781E391E01B
:101DB0000E94670984EC99E0F4013197F1F70197EB
:101DC000D9F70E94F50787E391E00E94670981E057
:101DD00060E00E94E707133609F059C11092FC0237
:101DE0001092FB020E94F5070F90CF91DF911F9197
:101DF0000F91FF90EF90DF90BF90AF909F908F90EA
:101E0000089587E70E94A4030E94A906E82EEFEF39
:101E10008E17B9F3FBE28F1709F42EC18DE3E81694
:101E200009F437C1E3E6EE1609F4ADCF103249F7F5
:101E30008E2D0E94FD071E2DE4CF0E94F507812FF5
:101E40008153853078F1FAC01032C1F40E94F50751
:101E500085E491E00E94670984EC99E0F4013197F0
:101E6000F1F70197D9F70E94F50787E391E00E9407
:101E7000670981E060E00E94E707C3CF0E94F50791
:101E80008EE491E00E94670984EC99E0F4013197B7
:101E9000F1F70197D9F70E94F50787E391E00E94D7
:101EA0006709F1C00FE0A1E3FA2E87E70E94A403BF
:101EB000802F90E00E947E07181711F01F1589F0FF
:101EC000802F90E00E947E07181719F4F1E0F98343
:101ED0000BC00B5F043229F0F394C5010197F1F7B1
:101EE000E4CF89818130B1F40E94F50780EA91E066
:101EF0000E94670981E060E00E94E7078DE791E0BA
:101F00000E94670984EC99E0F4013197F1F7019799
:101F1000D9F7A9C0802F90E0612F0E94A207D39427
:101F200081E090E06D2D0E94A20781E090E00E9488
:101F30007E07D82E0E94F5078BEB90E00E94670980
:101F400081E060E00E94E70789EC90E00E94670969
:101F500084EC99E0F4013197F1F70197D9F70E94E9
:101F6000F50782E990E00E94670981E060E00E9445
:101F7000E70710E0E02EFF2487E70E94A4030E94F9
:101F8000A906082F112309F03FC011E00E94A906FD
:101F9000082F8F3FD9F3833679F481E060E00E9407
:101FA000E70780E20E94FD0780ED97E0F40131979A
:101FB000F1F70197D9F75AC01530F8F40E94FD07E0
:101FC00080ED97E0F4013197F1F70197D9F7612F90
:101FD000615081E00E94E7078AE20E94FD0780EDE0
:101FE00097E0F4013197F1F70197D9F7C701810F15
:101FF000911D602F0E94A20703C08D3349F011503C
:102000001F5F163008F4C2CF11E00D3309F0B4CFD2
:102010000E94F50781EB91E00E94670981E060E092
:102020000E94E7078EEA90E00E94670984EC99E03D
:10203000F4013197F1F70197D9F7A3CE0E94F50784
:1020400087E891E00E94670981E060E00E94E7076D
:102050008DE791E00E94670984EC99E0F4013197E3
:10206000F1F70197D9F70E94F5078DCE81E060E086
:102070000E94E70710E0C4CF81E060E00E94E7071C
:1020800080E20E94FD0781E060E00E94E70710E225
:10209000B8CE103308F4D8CED0CE1F931092FC02E5
:1020A0001092FB020E94F5078CEB91E00E946709F9
:1020B00081E060E00E94E7078DEC91E00E946709F3
:1020C00084EC99E028EC30E0F9013197F1F70197C1
:1020D000D9F70E94F50782ED91E00E94670984EC30
:1020E00099E028EC30E0F9013197F1F70197D9F741
:1020F0000E94F50787E70E94A40380E060E00E9449
:10210000E7078EED91E00E94670981E060E00E94A0
:10211000E7078EEE91E00E9467090E94A906182F3A
:102120008091FB02882351F4143340F4113330F0D2
:102130001093FC0281E08093FB021FEF8091FC0270
:10214000813311F40E94740E8091FC02823311F4E9
:102150000E94000D8091FC02833311F40E94BC099F
:102160001A3241F61092FA0280E38093FE020E9436
:10217000F5071F9108956F927F928F929F92AF9271
:10218000BF92CF92DF92EF92FF920F931F93DF9354
:10219000CF9300D000D000D0CDB7DEB782E062E0B0
:1021A000AE014F5F5F4F0E9443058981882309F08C
:1021B00031C10E94F5078BEB90E00E94670981E036
:1021C00060E00E94E70789EC90E00E94670984ECD8
:1021D00099E028EC30E0F9013197F1F70197D9F750
:1021E0000E94F5078FEF91E00E94670984EC99E067
:1021F00028EC30E0F9013197F1F70197D9F70E9407
:10220000F50782E890E00E94670984EC99E028ECE9
:1022100030E0F9013197F1F70197D9F70E94F507FE
:10222000AA24A394BB2492E0C92ED12CE12CF12C3A
:1022300088EC882E912C3E010894611C711C87E764
:102240000E94A40387ED90E00E94670981E060E0AE
:102250000E94E70787E70E94A4030E94A90611E0F5
:1022600087E70E94A4030E94A906082F8F3FD9F395
:102270008336D1F4BB2009F4C3C0125081E0612F32
:102280000E94E70780E20E94FD0780ED97E0F401DD
:102290003197F1F70197D9F781E0612F0E94E707A5
:1022A000123028F5BB2425C01530E9F00E94FD0747
:1022B00080ED97E0F4013197F1F70197D9F7612F9D
:1022C000615081E00E94E7078AE20E94FD0780EDED
:1022D00097E0F4013197F1F70197D9F7F301E10F96
:1022E000F11D008304C08D3359F014E002C0BB24FB
:1022F000B3941F5F163008F4B3CF033609F480C0DF
:102300001A8183E090E00E947E071817B9F41B81C0
:1023100084E090E00E947E07181781F41C8185E01C
:1023200090E00E947E07181749F41D8186E090E036
:102330000E947E07181711F480E001C081E0033687
:1023400019F4882321F45CC0813009F060C093E067
:10235000A91611F10E94F50789E092E00E94670931
:1023600081E060E00E94E70788E192E00E9467094F
:10237000C701B6010E94E60884EC99E0F4013197A8
:10238000F1F70197D9F7A3940E94F5070894C108C3
:10239000D108E108F10853CF882371F10E94F507B5
:1023A00089E092E00E94670984EC99E028EC30E033
:1023B000F9013197F1F70197D9F70E94F50785E206
:1023C00092E00E94670981E060E00E94E70783E3F2
:1023D00092E00E94670982E062E041E00E94970477
:1023E00084EC99E028EC30E0F9013197F1F701979E
:1023F000D9F70E94F50781E0033639F4882309F5FF
:102400001092FE021092FA0220C08823D1F40E949A
:102410004D101DC00E94F5078EE392E00E946709EF
:1024200081E060E00E94E7078AE492E00E94670989
:1024300084EC99E028EC30E0F9013197F1F701974D
:10244000D9F71092FA021092FE020E94F507269622
:102450000FB6F894DEBF0FBECDBFCF91DF911F91B5
:102460000F91FF90EF90DF90CF90BF90AF909F9033
:102470008F907F906F9008956F927F928F929F922E
:10248000AF92BF92CF92DF92EF92FF920F931F9382
:10249000DF93CF9300D000D000D0CDB7DEB782E07D
:1024A00062E0AE014F5F5F4F0E944305898181303A
:1024B00009F035C10E94F5078BEB90E00E94670997
:1024C00081E060E00E94E70789EC90E00E946709E4
:1024D00084EC99E028EC30E0F9013197F1F70197AD
:1024E000D9F70E94F50786E790E00E94670984EC1F
:1024F00099E028EC30E0F9013197F1F70197D9F72D
:102500000E94F50782E890E00E94670984EC99E058
:1025100028EC30E0F9013197F1F70197D9F70E94E3
:10252000F507AA24A394BB2432E0C32ED12CE12CBE
:10253000F12C28EC822E912C3E010894611C711C18
:1025400087E70E94A40381EF90E00E94670981E081
:1025500060E00E94E70787E70E94A4030E94A906A3
:1025600011E087E70E94A4030E94A906082F8F3F6D
:10257000D9F38336D1F4BB2009F4C4C0125081E0F2
:10258000612F0E94E70780E20E94FD0780ED97E03F
:10259000F4013197F1F70197D9F781E0612F0E949B
:1025A000E707123028F5BB2425C01530E9F00E945A
:1025B000FD0780ED97E0F4013197F1F70197D9F726
:1025C000612F615081E00E94E7078AE20E94FD07C7
:1025D00080ED97E0F4013197F1F70197D9F7F30116
:1025E000E10FF11D008304C08D3359F014E002C0E7
:1025F000BB24B3941F5F163008F4B3CF033609F43D
:1026000081C01A8187E090E00E947E071817B9F414
:102610001B8188E090E00E947E07181781F41C81DE
:1026200089E090E00E947E07181749F41D818AE036
:1026300090E00E947E07181711F480E001C081E04D
:10264000033619F4882329F45DC0813011F080E04D
:1026500055C093E0A91611F10E94F50789E092E0B8
:102660000E94670981E060E00E94E70788E192E04C
:102670000E946709C701B6010E94E60884EC99E050
:10268000F4013197F1F70197D9F7A3940E94F50768
:102690000894C108D108E108F10852CF882371F1EC
:1026A0000E94F50789E092E00E94670984EC99E0B6
:1026B00028EC30E0F9013197F1F70197D9F70E9442
:1026C000F50780E592E00E94670981E060E00E94E2
:1026D000E7078FE592E00E94670982E062E041E04F
:1026E0000E94970484EC99E028EC30E0F9013197DE
:1026F000F1F70197D9F70E94F50781E0033639F425
:102700008823E1F41092FE021092FA021BC0882383
:10271000A9F482E062E040E00E9497040FC00E94AA
:10272000F50785E692E00E94670984EC99E028ECC1
:1027300030E0F9013197F1F70197D9F71092FA02D9
:102740001092FE020E94F50726960FB6F894DEBF9F
:102750000FBECDBFCF91DF911F910F91FF90EF90F2
:10276000DF90CF90BF90AF909F908F907F906F90B1
:1027700008956F927F928F929F92AF92BF92CF9265
:10278000DF92EF92FF920F931F93DF93CF9300D0CE
:1027900000D000D0CDB7DEB782E062E0AE014F5F7F
:1027A0005F4F0E9443058981882309F046C10E943A
:1027B000F50782E792E00E94670981E060E00E94ED
:1027C000E7078DEC91E00E94670984EC99E028EC22
:1027D00030E0F9013197F1F70197D9F70E94F50739
:1027E00086E790E00E94670984EC99E028EC30E0ED
:1027F000F9013197F1F70197D9F70E94F50782E8BF
:1028000090E00E94670984EC99E028EC30E0F9013F
:102810003197F1F70197D9F70E94F507AA24A394FD
:10282000BB2452E0C52ED12CE12CF12C48EC842E97
:10283000912C3E010894611C711C87E70E94A4033F
:1028400083E892E00E94670981E060E00E94E70768
:1028500087E70E94A4030E94A90611E087E70E946F
:10286000A4030E94A906082F8F3FD9F38336D1F421
:10287000BB2009F4BCC0125081E0612F0E94E70721
:1028800080E20E94FD0780ED97E0F4013197F1F7B7
:102890000197D9F781E0612F0E94E707123028F5F0
:1028A000BB2425C01530E9F00E94FD0780ED97E0BC
:1028B000F4013197F1F70197D9F7612F615081E069
:1028C0000E94E7078AE20E94FD0780ED97E0F4018D
:1028D0003197F1F70197D9F7F301E10FF11D00836B
:1028E00004C08D3359F014E002C0BB24B3941F5FC1
:1028F000163008F4B3CF033609F479C01A818BE09F
:1029000090E00E947E071817B9F41B818CE090E0DC
:102910000E947E07181781F41C818DE090E00E94D0
:102920007E07181749F41D818EE090E00E947E0713
:10293000181711F480E001C081E0033619F48823F0
:1029400021F455C0813009F059C093E0A91611F166
:102950000E94F50789E092E00E94670981E060E04B
:102960000E94E70788E192E00E946709C701B6016B
:102970000E94E60884EC99E0F4013197F1F70197A1
:10298000D9F7A3940E94F5070894C108D108E1087B
:10299000F10853CF882331F10E94F50789E092E0D6
:1029A0000E94670984EC99E028EC30E0F901319746
:1029B000F1F70197D9F70E94F50782E992E00E94AA
:1029C000670982E062E041E00E94970484EC99E0AC
:1029D00028EC30E0F9013197F1F70197D9F70E941F
:1029E000F50781E0033641F4882309F03DC01092D9
:1029F000FE021092FA023CC08823B1F50E94F5074E
:102A000082EA92E00E94670981E060E00E94E707A5
:102A10008EEA90E00E94670983E70E94A40380E1A8
:102A200097E228EC30E0F9013197F1F70197D9F7F7
:102A30001092FA021092FE021DC00E94F5078EE36A
:102A400092E00E94670981E060E00E94E7078AE463
:102A500092E00E94670984EC99E028EC30E0F901EB
:102A60003197F1F70197D9F71092FA021092FE020E
:102A70000E94F50726960FB6F894DEBF0FBECDBFB5
:102A8000CF91DF911F910F91FF90EF90DF90CF904A
:102A9000BF90AF909F908F907F906F9008955F92BE
:102AA0006F927F928F929F92AF92BF92CF92DF925E
:102AB000EF92FF920F931F93DF93CF93CDB7DEB7C3
:102AC0002A970FB6F894DEBF0FBECDBF198281E002
:102AD0008A831B8282E062E0AE014C5F5F4F0E94FE
:102AE00043058C81882309F031C20E94F5078AEAE8
:102AF00092E00E94670981E060E00E94E7078DECA8
:102B000091E00E94670984EC99E028EC30E0F9013B
:102B10003197F1F70197D9F70E94F50786E790E022
:102B20000E94670984EC99E028EC30E0F9013197C4
:102B3000F1F70197D9F70E94F50782E890E00E942B
:102B4000670984EC99E028EC30E0F9013197F1F75E
:102B50000197D9F70E94F507DD24DA941A86B8ECBC
:102B6000AB2EB12CA4E06A2E712C6C0E7D1ECC24F1
:102B7000C39455245394BEC1F0E48F2EFCE99F2EDC
:102B800087E70E94A40383E6D81629F10E94A906CC
:102B9000182F0E94F50780E291E00E94670981E00A
:102BA00060E00E94E70781E391E00E94670984ECFE
:102BB00099E0F5013197F1F70197D9F70E94F507F0
:102BC00087E391E00E94670981E060E00E94E707E7
:102BD000133609F0EAC119820E94F507E3E6DE2EFA
:102BE0003CC187E70E94A4030E94A906D82E9FEF4C
:102BF0008917B9F38BE2D81609F4CCC19DE3D91635
:102C000009F4D5C183E6D81609F4BACF103249F7D2
:102C10008D2D0E94FD071D2DE4CF0E94F507812F09
:102C20008153853078F109C11032C1F40E94F50753
:102C300085E491E00E94670984EC99E0F501319701
:102C4000F1F70197D9F70E94F50787E391E00E9419
:102C5000670981E060E00E94E707C3CF0E94F507A3
:102C60008EE491E00E94670984EC99E0F5013197C8
:102C7000F1F70197D9F70E94F50787E391E00E94E9
:102C800067098FC17FE0F72E01E38F2D90E00E944E
:102C90007E07181711F0101781F08F2D90E00E9419
:102CA0007E07181771F095E0F90E84E2F81629F006
:102CB0000F5FC4010197F1F7E8CF9A85913009F0D1
:102CC000B7C00E94F5078BEB90E00E94670981E096
:102CD00060E00E94E70789EC90E00E94670984ECBD
:102CE00099E0F5013197F1F70197D9F70E94F507BF
:102CF00082E990E00E94670981E060E00E94E707B6
:102D000011E087E70E94A4030E94A906D82E8FEF46
:102D1000D816D1F393E6D91699F48B81882309F05C
:102D200034C181E060E00E94E70780E20E94FD0775
:102D300080ED97E0F5013197F1F70197D9F724C1BC
:102D4000153008F03CC01CC0125081E0612F0E9479
:102D5000E70780E20E94FD0780ED97E0F5013197DB
:102D6000F1F70197D9F781E0612F0E94E707123050
:102D700050F51B8281E060E00E94E70710E023C06D
:102D80005B828D2D0E94FD0780ED97E0F501319764
:102D9000F1F70197D9F7612F615081E00E94E707B1
:102DA0008AE20E94FD0780ED97E0F5013197F1F787
:102DB0000197D9F7F301E10FF11DD08204C08DE333
:102DC000D81629F011501F5F163008F49ACF1D81D4
:102DD000EF2CFF24C70101960E947E071817A9F463
:102DE0001E81C70102960E947E07181771F41F8189
:102DF000C70103960E947E07181739F41885C7018A
:102E000004960E947E07181749F0C9820E94F507B0
:102E100089E092E00E946709DD241AC08981882335
:102E2000A1F0898191E09A87813009F0A9CE0DC087
:102E30000E94F5078CE691E004C00E94F50787E840
:102E400091E00E946709C9820EC083E6D81619F086
:102E500091E09A8708C081E08A878981882319F4E4
:102E600063E6D62E4BC08981813011F58A8183308B
:102E7000F8F481E060E00E94E70788E192E00E94B8
:102E800067092A8163E070E0621B7109882777FD7A
:102E90008095982F0E94E6088A818F5F8A83198225
:102EA00084EC99E0F5013197F1F70197D9F720C04B
:102EB0008981882319F18A818330E1F484EC99E0D7
:102EC000F5013197F1F70197D9F70E94F50782E9EB
:102ED00092E00E94670982E062E041E00E9497046C
:102EE00084EC99E0F5013197F1F70197D9F7C982A0
:102EF0000E94F5078981882309F43ECE89818823C1
:102F000009F03BC093E6D916C1F181E08A830E94A3
:102F1000F50782EA92E00E94670981E060E00E9482
:102F2000E7078EEA90E00E94670983E70E94A40306
:102F300080E197E228EC30E0F9013197F1F7019751
:102F4000D9F71092FA021092FE0235C00E94F507DE
:102F50008EE392E00E94670981E060E00E94E7074B
:102F60008AE492E00E94670984EC99E028EC30E062
:102F7000F9013197F1F70197D9F71092FA021092FF
:102F8000FE020E94F50717C010E08B81813009F026
:102F9000EECEDACE81E060E00E94E70780E20E9498
:102FA000FD0781E060E00E94E70710E21ACE1033CF
:102FB00008F43ACE32CE2A960FB6F894DEBF0FBE92
:102FC000CDBFCF91DF911F910F91FF90EF90DF90D8
:102FD000CF90BF90AF909F908F907F906F905F90B9
:102FE00008951F9382E062E041E00E941E040E9467
:102FF0009D030E94B7070E947A090E942D0781E075
:1030000090E00E947E078093FD0280E064E00E94D1
:10301000E7078AEB92E00E94670987E70E94A40312
:1030200080ED97E028EC30E0F9013197F1F7019756
:10303000D9F70E94F50782E090E00E947E07803376
:1030400011F40E948B0A1092FE021092FA020E9462
:10305000A906182F80E060E00E94E70782EC92E06A
:103060000E94670981E060E00E94E70781ED92E03D
:103070000E94670987E70E94A4031F3F41F38091E4
:10308000FA02882349F4153338F4113328F01093E9
:10309000FE0281E08093FA028091FE02813311F4F6
:1030A0000E94BB108091FE02823311F40E944F15E2
:1030B0008091FE02833311F40E94B9138091FE02C5
:1030C000843329F60E943C12C2CF629FD001739FC5
:1030D000F001829FE00DF11D649FE00DF11D929FB4
:1030E000F00D839FF00D749FF00D659FF00D9927F3
:1030F000729FB00DE11DF91F639FB00DE11DF91F17
:10310000BD01CF0111240895A1E21A2EAA1BBB1BF9
:10311000FD010DC0AA1FBB1FEE1FFF1FA217B307A3
:10312000E407F50720F0A21BB30BE40BF50B661FB9
:10313000771F881F991F1A9469F76095709580957D
:1031400090959B01AC01BD01CF01089597FB092E1D
:1031500005260ED057FD04D0D7DF0AD0001C38F466
:1031600050954095309521953F4F4F4F5F4F0895B3
:10317000F6F790958095709561957F4F8F4F9F4F93
:1031800008952F923F924F925F926F927F928F920B
:103190009F92AF92BF92CF92DF92EF92FF920F93E6
:1031A0001F93CF93DF93CDB7DEB7CA1BDB0B0FB6F0
:1031B000F894DEBF0FBECDBF09942A8839884888AD
:1031C0005F846E847D848C849B84AA84B984C88443
:1031D000DF80EE80FD800C811B81AA81B981CE0F3A
:1031E000D11D0FB6F894DEBF0FBECDBFED0108951F
:0431F000F894FFCF81
:1031F4004368616E676520677565737400706173F9
:1032040073776F726400206320666F72204578695B
:103214007400203D20546F206E65787420737465AB
:103224007000456E7465722070617373776F726499
:10323400004E65772050572061646465640073759F
:10324400636365737366756C6C79006320696E20C3
:1032540070617373776F7264006D6F646520746F4F
:1032640020636C65617200456E7465722041646D03
:10327400696E205057004461746120616464656420
:1032840000456E74657220416C61726D2050570068
:10329400456E7465722047756573742050570044F9
:1032A400656C6574652075736572206D6F64650067
:1032B4002B20696E204944206D6F646520746F2053
:1032C40000636C65617200456E7465722075736588
:1032D4007220494400456E74657220494400496E69
:1032E40076616C6964206F70657261746F720044FA
:1032F4006174612064656C6574656400494420648C
:103304006F65736E277420657869737400547279DD
:1033140020616761696E00496E76616C6964204959
:1033240044004164642075736572206D6F646500A8
:10333400494420616C7265616479206578697374AD
:1033440000446174612041646465640057656C6382
:103354006F6D6520746F2041646D696E004D6F64FC
:103364006500202A20666F72204578697400312038
:10337400416464557220322044656C5572003343B5
:1033840068616E67652067756573742050570063C4
:1033940020746F20657869740057726F6E672070AF
:1033A400617373776F7264005472696573206C651E
:1033B40066743A200043616E206E6F7420656E74EB
:1033C40065720061646D696E206D6F646500436CA5
:1033D4006F736520416C61726D006669727374006D
:1033E40043616E206E6F7420636C6F73652000619F
:1033F4006C61726D004E6F20416C61726D2073655B
:10340400740057656C636F6D6520746F2067756514
:10341400737400456E74657220677565737420500B
:10342400570043616E206E6F74207369676E206964
:103434006E005369676E20696E0057656C636F6D2B
:103444006520746F20557365720057656C636F6DEA
:103454006500312041646D696E20322055736572B8
:10346400003320477565737420342053746F7041A2
:103474006C0000000000000000003738392F34359C
:0A348400362A3132332D63303D2B20
:00000001FF
